{
  "contractName": "NFTJail",
  "abi": [
    {
      "inputs": [],
      "stateMutability": "nonpayable",
      "type": "constructor"
    },
    {
      "anonymous": false,
      "inputs": [
        {
          "indexed": true,
          "internalType": "address",
          "name": "owner",
          "type": "address"
        },
        {
          "indexed": true,
          "internalType": "address",
          "name": "approved",
          "type": "address"
        },
        {
          "indexed": true,
          "internalType": "uint256",
          "name": "tokenId",
          "type": "uint256"
        }
      ],
      "name": "Approval",
      "type": "event"
    },
    {
      "anonymous": false,
      "inputs": [
        {
          "indexed": true,
          "internalType": "address",
          "name": "owner",
          "type": "address"
        },
        {
          "indexed": true,
          "internalType": "address",
          "name": "operator",
          "type": "address"
        },
        {
          "indexed": false,
          "internalType": "bool",
          "name": "approved",
          "type": "bool"
        }
      ],
      "name": "ApprovalForAll",
      "type": "event"
    },
    {
      "anonymous": false,
      "inputs": [
        {
          "indexed": true,
          "internalType": "address",
          "name": "previousOwner",
          "type": "address"
        },
        {
          "indexed": true,
          "internalType": "address",
          "name": "newOwner",
          "type": "address"
        }
      ],
      "name": "OwnershipTransferred",
      "type": "event"
    },
    {
      "anonymous": false,
      "inputs": [
        {
          "indexed": true,
          "internalType": "address",
          "name": "from",
          "type": "address"
        },
        {
          "indexed": true,
          "internalType": "address",
          "name": "to",
          "type": "address"
        },
        {
          "indexed": true,
          "internalType": "uint256",
          "name": "tokenId",
          "type": "uint256"
        }
      ],
      "name": "Transfer",
      "type": "event"
    },
    {
      "inputs": [
        {
          "internalType": "address",
          "name": "to",
          "type": "address"
        },
        {
          "internalType": "uint256",
          "name": "tokenId",
          "type": "uint256"
        }
      ],
      "name": "approve",
      "outputs": [],
      "stateMutability": "nonpayable",
      "type": "function"
    },
    {
      "inputs": [
        {
          "internalType": "address",
          "name": "owner",
          "type": "address"
        }
      ],
      "name": "balanceOf",
      "outputs": [
        {
          "internalType": "uint256",
          "name": "",
          "type": "uint256"
        }
      ],
      "stateMutability": "view",
      "type": "function",
      "constant": true
    },
    {
      "inputs": [
        {
          "internalType": "uint256",
          "name": "tokenId",
          "type": "uint256"
        }
      ],
      "name": "getApproved",
      "outputs": [
        {
          "internalType": "address",
          "name": "",
          "type": "address"
        }
      ],
      "stateMutability": "view",
      "type": "function",
      "constant": true
    },
    {
      "inputs": [
        {
          "internalType": "address",
          "name": "owner",
          "type": "address"
        },
        {
          "internalType": "address",
          "name": "operator",
          "type": "address"
        }
      ],
      "name": "isApprovedForAll",
      "outputs": [
        {
          "internalType": "bool",
          "name": "",
          "type": "bool"
        }
      ],
      "stateMutability": "view",
      "type": "function",
      "constant": true
    },
    {
      "inputs": [],
      "name": "name",
      "outputs": [
        {
          "internalType": "string",
          "name": "",
          "type": "string"
        }
      ],
      "stateMutability": "view",
      "type": "function",
      "constant": true
    },
    {
      "inputs": [],
      "name": "owner",
      "outputs": [
        {
          "internalType": "address",
          "name": "",
          "type": "address"
        }
      ],
      "stateMutability": "view",
      "type": "function",
      "constant": true
    },
    {
      "inputs": [
        {
          "internalType": "uint256",
          "name": "tokenId",
          "type": "uint256"
        }
      ],
      "name": "ownerOf",
      "outputs": [
        {
          "internalType": "address",
          "name": "",
          "type": "address"
        }
      ],
      "stateMutability": "view",
      "type": "function",
      "constant": true
    },
    {
      "inputs": [
        {
          "internalType": "bytes32",
          "name": "",
          "type": "bytes32"
        }
      ],
      "name": "parentTokenTracker",
      "outputs": [
        {
          "internalType": "bool",
          "name": "",
          "type": "bool"
        }
      ],
      "stateMutability": "view",
      "type": "function",
      "constant": true
    },
    {
      "inputs": [],
      "name": "renounceOwnership",
      "outputs": [],
      "stateMutability": "nonpayable",
      "type": "function"
    },
    {
      "inputs": [
        {
          "internalType": "address",
          "name": "from",
          "type": "address"
        },
        {
          "internalType": "address",
          "name": "to",
          "type": "address"
        },
        {
          "internalType": "uint256",
          "name": "tokenId",
          "type": "uint256"
        }
      ],
      "name": "safeTransferFrom",
      "outputs": [],
      "stateMutability": "nonpayable",
      "type": "function"
    },
    {
      "inputs": [
        {
          "internalType": "address",
          "name": "from",
          "type": "address"
        },
        {
          "internalType": "address",
          "name": "to",
          "type": "address"
        },
        {
          "internalType": "uint256",
          "name": "tokenId",
          "type": "uint256"
        },
        {
          "internalType": "bytes",
          "name": "_data",
          "type": "bytes"
        }
      ],
      "name": "safeTransferFrom",
      "outputs": [],
      "stateMutability": "nonpayable",
      "type": "function"
    },
    {
      "inputs": [
        {
          "internalType": "address",
          "name": "operator",
          "type": "address"
        },
        {
          "internalType": "bool",
          "name": "approved",
          "type": "bool"
        }
      ],
      "name": "setApprovalForAll",
      "outputs": [],
      "stateMutability": "nonpayable",
      "type": "function"
    },
    {
      "inputs": [
        {
          "internalType": "bytes4",
          "name": "interfaceId",
          "type": "bytes4"
        }
      ],
      "name": "supportsInterface",
      "outputs": [
        {
          "internalType": "bool",
          "name": "",
          "type": "bool"
        }
      ],
      "stateMutability": "view",
      "type": "function",
      "constant": true
    },
    {
      "inputs": [],
      "name": "symbol",
      "outputs": [
        {
          "internalType": "string",
          "name": "",
          "type": "string"
        }
      ],
      "stateMutability": "view",
      "type": "function",
      "constant": true
    },
    {
      "inputs": [],
      "name": "tokenIdCounter",
      "outputs": [
        {
          "internalType": "uint256",
          "name": "_value",
          "type": "uint256"
        }
      ],
      "stateMutability": "view",
      "type": "function",
      "constant": true
    },
    {
      "inputs": [
        {
          "internalType": "address",
          "name": "from",
          "type": "address"
        },
        {
          "internalType": "address",
          "name": "to",
          "type": "address"
        },
        {
          "internalType": "uint256",
          "name": "tokenId",
          "type": "uint256"
        }
      ],
      "name": "transferFrom",
      "outputs": [],
      "stateMutability": "nonpayable",
      "type": "function"
    },
    {
      "inputs": [
        {
          "internalType": "address",
          "name": "newOwner",
          "type": "address"
        }
      ],
      "name": "transferOwnership",
      "outputs": [],
      "stateMutability": "nonpayable",
      "type": "function"
    },
    {
      "stateMutability": "payable",
      "type": "receive",
      "payable": true
    },
    {
      "inputs": [
        {
          "internalType": "address",
          "name": "parentContractAddress",
          "type": "address"
        },
        {
          "internalType": "uint256",
          "name": "parentTokenId",
          "type": "uint256"
        },
        {
          "internalType": "string",
          "name": "_tokenURI",
          "type": "string"
        }
      ],
      "name": "mint",
      "outputs": [],
      "stateMutability": "payable",
      "type": "function",
      "payable": true
    },
    {
      "inputs": [
        {
          "internalType": "uint256",
          "name": "tokenId",
          "type": "uint256"
        }
      ],
      "name": "tokenURI",
      "outputs": [
        {
          "internalType": "string",
          "name": "",
          "type": "string"
        }
      ],
      "stateMutability": "view",
      "type": "function",
      "constant": true
    }
  ],
  "bytecode": "0x60806040523480156200001157600080fd5b506040518060400160405280600781526020017f4e46544a61696c000000000000000000000000000000000000000000000000008152506040518060400160405280600781526020017f4e46544a41494c00000000000000000000000000000000000000000000000000815250816000908051906020019062000096929190620001a6565b508060019080519060200190620000af929190620001a6565b505050620000d2620000c6620000d860201b60201c565b620000e060201b60201c565b620002ba565b600033905090565b6000600760009054906101000a900473ffffffffffffffffffffffffffffffffffffffff16905081600760006101000a81548173ffffffffffffffffffffffffffffffffffffffff021916908373ffffffffffffffffffffffffffffffffffffffff1602179055508173ffffffffffffffffffffffffffffffffffffffff168173ffffffffffffffffffffffffffffffffffffffff167f8be0079c531659141344cd1fd0a4f28419497f9722a3daafe3b4186f6b6457e060405160405180910390a35050565b828054620001b49062000285565b90600052602060002090601f016020900481019282620001d8576000855562000224565b82601f10620001f357805160ff191683800117855562000224565b8280016001018555821562000224579182015b828111156200022357825182559160200191906001019062000206565b5b50905062000233919062000237565b5090565b5b808211156200025257600081600090555060010162000238565b5090565b7f4e487b7100000000000000000000000000000000000000000000000000000000600052602260045260246000fd5b600060028204905060018216806200029e57607f821691505b602082108103620002b457620002b362000256565b5b50919050565b61352580620002ca6000396000f3fe6080604052600436106101185760003560e01c8063715018a6116100a0578063b88d4fde11610064578063b88d4fde146103bc578063c87b56dd146103e5578063d3fc986414610422578063e985e9c51461043e578063f2fde38b1461047b5761011f565b8063715018a6146102fb5780638da5cb5b1461031257806395d89b411461033d57806398bdf6f514610368578063a22cb465146103935761011f565b806323b872dd116100e757806323b872dd146101f25780632c48cb0c1461021b57806342842e0e146102585780636352211e1461028157806370a08231146102be5761011f565b806301ffc9a71461012457806306fdde0314610161578063081812fc1461018c578063095ea7b3146101c95761011f565b3661011f57005b600080fd5b34801561013057600080fd5b5061014b60048036038101906101469190611fe8565b6104a4565b6040516101589190612030565b60405180910390f35b34801561016d57600080fd5b50610176610586565b60405161018391906120e4565b60405180910390f35b34801561019857600080fd5b506101b360048036038101906101ae919061213c565b610618565b6040516101c091906121aa565b60405180910390f35b3480156101d557600080fd5b506101f060048036038101906101eb91906121f1565b61069d565b005b3480156101fe57600080fd5b5061021960048036038101906102149190612231565b6107b4565b005b34801561022757600080fd5b50610242600480360381019061023d91906122ba565b610814565b60405161024f9190612030565b60405180910390f35b34801561026457600080fd5b5061027f600480360381019061027a9190612231565b610834565b005b34801561028d57600080fd5b506102a860048036038101906102a3919061213c565b610854565b6040516102b591906121aa565b60405180910390f35b3480156102ca57600080fd5b506102e560048036038101906102e091906122e7565b610905565b6040516102f29190612323565b60405180910390f35b34801561030757600080fd5b506103106109bc565b005b34801561031e57600080fd5b50610327610a44565b60405161033491906121aa565b60405180910390f35b34801561034957600080fd5b50610352610a6e565b60405161035f91906120e4565b60405180910390f35b34801561037457600080fd5b5061037d610b00565b60405161038a9190612323565b60405180910390f35b34801561039f57600080fd5b506103ba60048036038101906103b5919061236a565b610b0c565b005b3480156103c857600080fd5b506103e360048036038101906103de91906124df565b610b22565b005b3480156103f157600080fd5b5061040c6004803603810190610407919061213c565b610b84565b60405161041991906120e4565b60405180910390f35b61043c600480360381019061043791906125c2565b610b96565b005b34801561044a57600080fd5b5061046560048036038101906104609190612636565b610db2565b6040516104729190612030565b60405180910390f35b34801561048757600080fd5b506104a2600480360381019061049d91906122e7565b610e46565b005b60007f80ac58cd000000000000000000000000000000000000000000000000000000007bffffffffffffffffffffffffffffffffffffffffffffffffffffffff1916827bffffffffffffffffffffffffffffffffffffffffffffffffffffffff1916148061056f57507f5b5e139f000000000000000000000000000000000000000000000000000000007bffffffffffffffffffffffffffffffffffffffffffffffffffffffff1916827bffffffffffffffffffffffffffffffffffffffffffffffffffffffff1916145b8061057f575061057e82610f3d565b5b9050919050565b606060008054610595906126a5565b80601f01602080910402602001604051908101604052809291908181526020018280546105c1906126a5565b801561060e5780601f106105e35761010080835404028352916020019161060e565b820191906000526020600020905b8154815290600101906020018083116105f157829003601f168201915b5050505050905090565b600061062382610fa7565b610662576040517f08c379a000000000000000000000000000000000000000000000000000000000815260040161065990612748565b60405180910390fd5b6004600083815260200190815260200160002060009054906101000a900473ffffffffffffffffffffffffffffffffffffffff169050919050565b60006106a882610854565b90508073ffffffffffffffffffffffffffffffffffffffff168373ffffffffffffffffffffffffffffffffffffffff1603610718576040517f08c379a000000000000000000000000000000000000000000000000000000000815260040161070f906127da565b60405180910390fd5b8073ffffffffffffffffffffffffffffffffffffffff16610737611013565b73ffffffffffffffffffffffffffffffffffffffff161480610766575061076581610760611013565b610db2565b5b6107a5576040517f08c379a000000000000000000000000000000000000000000000000000000000815260040161079c9061286c565b60405180910390fd5b6107af838361101b565b505050565b6107c56107bf611013565b826110d4565b610804576040517f08c379a00000000000000000000000000000000000000000000000000000000081526004016107fb906128fe565b60405180910390fd5b61080f8383836111b2565b505050565b60096020528060005260406000206000915054906101000a900460ff1681565b61084f83838360405180602001604052806000815250610b22565b505050565b6000806002600084815260200190815260200160002060009054906101000a900473ffffffffffffffffffffffffffffffffffffffff169050600073ffffffffffffffffffffffffffffffffffffffff168173ffffffffffffffffffffffffffffffffffffffff16036108fc576040517f08c379a00000000000000000000000000000000000000000000000000000000081526004016108f390612990565b60405180910390fd5b80915050919050565b60008073ffffffffffffffffffffffffffffffffffffffff168273ffffffffffffffffffffffffffffffffffffffff1603610975576040517f08c379a000000000000000000000000000000000000000000000000000000000815260040161096c90612a22565b60405180910390fd5b600360008373ffffffffffffffffffffffffffffffffffffffff1673ffffffffffffffffffffffffffffffffffffffff168152602001908152602001600020549050919050565b6109c4611013565b73ffffffffffffffffffffffffffffffffffffffff166109e2610a44565b73ffffffffffffffffffffffffffffffffffffffff1614610a38576040517f08c379a0000000000000000000000000000000000000000000000000000000008152600401610a2f90612a8e565b60405180910390fd5b610a426000611418565b565b6000600760009054906101000a900473ffffffffffffffffffffffffffffffffffffffff16905090565b606060018054610a7d906126a5565b80601f0160208091040260200160405190810160405280929190818152602001828054610aa9906126a5565b8015610af65780601f10610acb57610100808354040283529160200191610af6565b820191906000526020600020905b815481529060010190602001808311610ad957829003601f168201915b5050505050905090565b60088060000154905081565b610b1e610b17611013565b83836114de565b5050565b610b33610b2d611013565b836110d4565b610b72576040517f08c379a0000000000000000000000000000000000000000000000000000000008152600401610b69906128fe565b60405180910390fd5b610b7e8484848461164a565b50505050565b6060610b8f826116a6565b9050919050565b60008484604051602001610bab929190612aae565b6040516020818303038152906040528051906020012090506009600082815260200190815260200160002060009054906101000a900460ff1615610c24576040517f08c379a0000000000000000000000000000000000000000000000000000000008152600401610c1b90612b23565b60405180910390fd5b8473ffffffffffffffffffffffffffffffffffffffff16636352211e856040518263ffffffff1660e01b8152600401610c5d9190612323565b602060405180830381865afa158015610c7a573d6000803e3d6000fd5b505050506040513d601f19601f82011682018060405250810190610c9e9190612b58565b73ffffffffffffffffffffffffffffffffffffffff163373ffffffffffffffffffffffffffffffffffffffff1614610d0b576040517f08c379a0000000000000000000000000000000000000000000000000000000008152600401610d0290612bf7565b60405180910390fd5b60016009600083815260200190815260200160002060006101000a81548160ff021916908315150217905550610d4160086117f7565b610d5433610d4f600861180d565b61181b565b610dab610d61600861180d565b84848080601f016020809104026020016040519081016040528093929190818152602001838380828437600081840152601f19601f82011690508083019250505050505050611839565b5050505050565b6000600560008473ffffffffffffffffffffffffffffffffffffffff1673ffffffffffffffffffffffffffffffffffffffff16815260200190815260200160002060008373ffffffffffffffffffffffffffffffffffffffff1673ffffffffffffffffffffffffffffffffffffffff16815260200190815260200160002060009054906101000a900460ff16905092915050565b610e4e611013565b73ffffffffffffffffffffffffffffffffffffffff16610e6c610a44565b73ffffffffffffffffffffffffffffffffffffffff1614610ec2576040517f08c379a0000000000000000000000000000000000000000000000000000000008152600401610eb990612a8e565b60405180910390fd5b600073ffffffffffffffffffffffffffffffffffffffff168173ffffffffffffffffffffffffffffffffffffffff1603610f31576040517f08c379a0000000000000000000000000000000000000000000000000000000008152600401610f2890612c89565b60405180910390fd5b610f3a81611418565b50565b60007f01ffc9a7000000000000000000000000000000000000000000000000000000007bffffffffffffffffffffffffffffffffffffffffffffffffffffffff1916827bffffffffffffffffffffffffffffffffffffffffffffffffffffffff1916149050919050565b60008073ffffffffffffffffffffffffffffffffffffffff166002600084815260200190815260200160002060009054906101000a900473ffffffffffffffffffffffffffffffffffffffff1673ffffffffffffffffffffffffffffffffffffffff1614159050919050565b600033905090565b816004600083815260200190815260200160002060006101000a81548173ffffffffffffffffffffffffffffffffffffffff021916908373ffffffffffffffffffffffffffffffffffffffff160217905550808273ffffffffffffffffffffffffffffffffffffffff1661108e83610854565b73ffffffffffffffffffffffffffffffffffffffff167f8c5be1e5ebec7d5bd14f71427d1e84f3dd0314c0f7b2291e5b200ac8c7c3b92560405160405180910390a45050565b60006110df82610fa7565b61111e576040517f08c379a000000000000000000000000000000000000000000000000000000000815260040161111590612d1b565b60405180910390fd5b600061112983610854565b90508073ffffffffffffffffffffffffffffffffffffffff168473ffffffffffffffffffffffffffffffffffffffff16148061116b575061116a8185610db2565b5b806111a957508373ffffffffffffffffffffffffffffffffffffffff1661119184610618565b73ffffffffffffffffffffffffffffffffffffffff16145b91505092915050565b8273ffffffffffffffffffffffffffffffffffffffff166111d282610854565b73ffffffffffffffffffffffffffffffffffffffff1614611228576040517f08c379a000000000000000000000000000000000000000000000000000000000815260040161121f90612dad565b60405180910390fd5b600073ffffffffffffffffffffffffffffffffffffffff168273ffffffffffffffffffffffffffffffffffffffff1603611297576040517f08c379a000000000000000000000000000000000000000000000000000000000815260040161128e90612e3f565b60405180910390fd5b6112a28383836118ad565b6112ad60008261101b565b6001600360008573ffffffffffffffffffffffffffffffffffffffff1673ffffffffffffffffffffffffffffffffffffffff16815260200190815260200160002060008282546112fd9190612e8e565b925050819055506001600360008473ffffffffffffffffffffffffffffffffffffffff1673ffffffffffffffffffffffffffffffffffffffff16815260200190815260200160002060008282546113549190612ec2565b92505081905550816002600083815260200190815260200160002060006101000a81548173ffffffffffffffffffffffffffffffffffffffff021916908373ffffffffffffffffffffffffffffffffffffffff160217905550808273ffffffffffffffffffffffffffffffffffffffff168473ffffffffffffffffffffffffffffffffffffffff167fddf252ad1be2c89b69c2b068fc378daa952ba7f163c4a11628f55a4df523b3ef60405160405180910390a46114138383836118b2565b505050565b6000600760009054906101000a900473ffffffffffffffffffffffffffffffffffffffff16905081600760006101000a81548173ffffffffffffffffffffffffffffffffffffffff021916908373ffffffffffffffffffffffffffffffffffffffff1602179055508173ffffffffffffffffffffffffffffffffffffffff168173ffffffffffffffffffffffffffffffffffffffff167f8be0079c531659141344cd1fd0a4f28419497f9722a3daafe3b4186f6b6457e060405160405180910390a35050565b8173ffffffffffffffffffffffffffffffffffffffff168373ffffffffffffffffffffffffffffffffffffffff160361154c576040517f08c379a000000000000000000000000000000000000000000000000000000000815260040161154390612f64565b60405180910390fd5b80600560008573ffffffffffffffffffffffffffffffffffffffff1673ffffffffffffffffffffffffffffffffffffffff16815260200190815260200160002060008473ffffffffffffffffffffffffffffffffffffffff1673ffffffffffffffffffffffffffffffffffffffff16815260200190815260200160002060006101000a81548160ff0219169083151502179055508173ffffffffffffffffffffffffffffffffffffffff168373ffffffffffffffffffffffffffffffffffffffff167f17307eab39ab6107e8899845ad3d59bd9653f200f220920489ca2b5937696c318360405161163d9190612030565b60405180910390a3505050565b6116558484846111b2565b611661848484846118b7565b6116a0576040517f08c379a000000000000000000000000000000000000000000000000000000000815260040161169790612ff6565b60405180910390fd5b50505050565b60606116b182610fa7565b6116f0576040517f08c379a00000000000000000000000000000000000000000000000000000000081526004016116e790613088565b60405180910390fd5b6000600660008481526020019081526020016000208054611710906126a5565b80601f016020809104026020016040519081016040528092919081815260200182805461173c906126a5565b80156117895780601f1061175e57610100808354040283529160200191611789565b820191906000526020600020905b81548152906001019060200180831161176c57829003601f168201915b50505050509050600061179a611a3e565b905060008151036117af5781925050506117f2565b6000825111156117e45780826040516020016117cc9291906130e4565b604051602081830303815290604052925050506117f2565b6117ed84611a7b565b925050505b919050565b6001816000016000828254019250508190555050565b600081600001549050919050565b611835828260405180602001604052806000815250611b22565b5050565b61184282610fa7565b611881576040517f08c379a00000000000000000000000000000000000000000000000000000000081526004016118789061317a565b60405180910390fd5b806006600084815260200190815260200160002090805190602001906118a8929190611ed9565b505050565b505050565b505050565b60006118d88473ffffffffffffffffffffffffffffffffffffffff16611b7d565b15611a31578373ffffffffffffffffffffffffffffffffffffffff1663150b7a02611901611013565b8786866040518563ffffffff1660e01b815260040161192394939291906131ef565b6020604051808303816000875af192505050801561195f57506040513d601f19601f8201168201806040525081019061195c9190613250565b60015b6119e1573d806000811461198f576040519150601f19603f3d011682016040523d82523d6000602084013e611994565b606091505b5060008151036119d9576040517f08c379a00000000000000000000000000000000000000000000000000000000081526004016119d090612ff6565b60405180910390fd5b805181602001fd5b63150b7a0260e01b7bffffffffffffffffffffffffffffffffffffffffffffffffffffffff1916817bffffffffffffffffffffffffffffffffffffffffffffffffffffffff191614915050611a36565b600190505b949350505050565b60606040518060400160405280600781526020017f697066733a2f2f00000000000000000000000000000000000000000000000000815250905090565b6060611a8682610fa7565b611ac5576040517f08c379a0000000000000000000000000000000000000000000000000000000008152600401611abc906132ef565b60405180910390fd5b6000611acf611a3e565b90506000815111611aef5760405180602001604052806000815250611b1a565b80611af984611ba0565b604051602001611b0a9291906130e4565b6040516020818303038152906040525b915050919050565b611b2c8383611d00565b611b3960008484846118b7565b611b78576040517f08c379a0000000000000000000000000000000000000000000000000000000008152600401611b6f90612ff6565b60405180910390fd5b505050565b6000808273ffffffffffffffffffffffffffffffffffffffff163b119050919050565b606060008203611be7576040518060400160405280600181526020017f30000000000000000000000000000000000000000000000000000000000000008152509050611cfb565b600082905060005b60008214611c19578080611c029061330f565b915050600a82611c129190613386565b9150611bef565b60008167ffffffffffffffff811115611c3557611c346123b4565b5b6040519080825280601f01601f191660200182016040528015611c675781602001600182028036833780820191505090505b5090505b60008514611cf457600182611c809190612e8e565b9150600a85611c8f91906133b7565b6030611c9b9190612ec2565b60f81b818381518110611cb157611cb06133e8565b5b60200101907effffffffffffffffffffffffffffffffffffffffffffffffffffffffffffff1916908160001a905350600a85611ced9190613386565b9450611c6b565b8093505050505b919050565b600073ffffffffffffffffffffffffffffffffffffffff168273ffffffffffffffffffffffffffffffffffffffff1603611d6f576040517f08c379a0000000000000000000000000000000000000000000000000000000008152600401611d6690613463565b60405180910390fd5b611d7881610fa7565b15611db8576040517f08c379a0000000000000000000000000000000000000000000000000000000008152600401611daf906134cf565b60405180910390fd5b611dc4600083836118ad565b6001600360008473ffffffffffffffffffffffffffffffffffffffff1673ffffffffffffffffffffffffffffffffffffffff1681526020019081526020016000206000828254611e149190612ec2565b92505081905550816002600083815260200190815260200160002060006101000a81548173ffffffffffffffffffffffffffffffffffffffff021916908373ffffffffffffffffffffffffffffffffffffffff160217905550808273ffffffffffffffffffffffffffffffffffffffff16600073ffffffffffffffffffffffffffffffffffffffff167fddf252ad1be2c89b69c2b068fc378daa952ba7f163c4a11628f55a4df523b3ef60405160405180910390a4611ed5600083836118b2565b5050565b828054611ee5906126a5565b90600052602060002090601f016020900481019282611f075760008555611f4e565b82601f10611f2057805160ff1916838001178555611f4e565b82800160010185558215611f4e579182015b82811115611f4d578251825591602001919060010190611f32565b5b509050611f5b9190611f5f565b5090565b5b80821115611f78576000816000905550600101611f60565b5090565b6000604051905090565b600080fd5b600080fd5b60007fffffffff0000000000000000000000000000000000000000000000000000000082169050919050565b611fc581611f90565b8114611fd057600080fd5b50565b600081359050611fe281611fbc565b92915050565b600060208284031215611ffe57611ffd611f86565b5b600061200c84828501611fd3565b91505092915050565b60008115159050919050565b61202a81612015565b82525050565b60006020820190506120456000830184612021565b92915050565b600081519050919050565b600082825260208201905092915050565b60005b8381101561208557808201518184015260208101905061206a565b83811115612094576000848401525b50505050565b6000601f19601f8301169050919050565b60006120b68261204b565b6120c08185612056565b93506120d0818560208601612067565b6120d98161209a565b840191505092915050565b600060208201905081810360008301526120fe81846120ab565b905092915050565b6000819050919050565b61211981612106565b811461212457600080fd5b50565b60008135905061213681612110565b92915050565b60006020828403121561215257612151611f86565b5b600061216084828501612127565b91505092915050565b600073ffffffffffffffffffffffffffffffffffffffff82169050919050565b600061219482612169565b9050919050565b6121a481612189565b82525050565b60006020820190506121bf600083018461219b565b92915050565b6121ce81612189565b81146121d957600080fd5b50565b6000813590506121eb816121c5565b92915050565b6000806040838503121561220857612207611f86565b5b6000612216858286016121dc565b925050602061222785828601612127565b9150509250929050565b60008060006060848603121561224a57612249611f86565b5b6000612258868287016121dc565b9350506020612269868287016121dc565b925050604061227a86828701612127565b9150509250925092565b6000819050919050565b61229781612284565b81146122a257600080fd5b50565b6000813590506122b48161228e565b92915050565b6000602082840312156122d0576122cf611f86565b5b60006122de848285016122a5565b91505092915050565b6000602082840312156122fd576122fc611f86565b5b600061230b848285016121dc565b91505092915050565b61231d81612106565b82525050565b60006020820190506123386000830184612314565b92915050565b61234781612015565b811461235257600080fd5b50565b6000813590506123648161233e565b92915050565b6000806040838503121561238157612380611f86565b5b600061238f858286016121dc565b92505060206123a085828601612355565b9150509250929050565b600080fd5b600080fd5b7f4e487b7100000000000000000000000000000000000000000000000000000000600052604160045260246000fd5b6123ec8261209a565b810181811067ffffffffffffffff8211171561240b5761240a6123b4565b5b80604052505050565b600061241e611f7c565b905061242a82826123e3565b919050565b600067ffffffffffffffff82111561244a576124496123b4565b5b6124538261209a565b9050602081019050919050565b82818337600083830152505050565b600061248261247d8461242f565b612414565b90508281526020810184848401111561249e5761249d6123af565b5b6124a9848285612460565b509392505050565b600082601f8301126124c6576124c56123aa565b5b81356124d684826020860161246f565b91505092915050565b600080600080608085870312156124f9576124f8611f86565b5b6000612507878288016121dc565b9450506020612518878288016121dc565b935050604061252987828801612127565b925050606085013567ffffffffffffffff81111561254a57612549611f8b565b5b612556878288016124b1565b91505092959194509250565b600080fd5b600080fd5b60008083601f840112612582576125816123aa565b5b8235905067ffffffffffffffff81111561259f5761259e612562565b5b6020830191508360018202830111156125bb576125ba612567565b5b9250929050565b600080600080606085870312156125dc576125db611f86565b5b60006125ea878288016121dc565b94505060206125fb87828801612127565b935050604085013567ffffffffffffffff81111561261c5761261b611f8b565b5b6126288782880161256c565b925092505092959194509250565b6000806040838503121561264d5761264c611f86565b5b600061265b858286016121dc565b925050602061266c858286016121dc565b9150509250929050565b7f4e487b7100000000000000000000000000000000000000000000000000000000600052602260045260246000fd5b600060028204905060018216806126bd57607f821691505b6020821081036126d0576126cf612676565b5b50919050565b7f4552433732313a20617070726f76656420717565727920666f72206e6f6e657860008201527f697374656e7420746f6b656e0000000000000000000000000000000000000000602082015250565b6000612732602c83612056565b915061273d826126d6565b604082019050919050565b6000602082019050818103600083015261276181612725565b9050919050565b7f4552433732313a20617070726f76616c20746f2063757272656e74206f776e6560008201527f7200000000000000000000000000000000000000000000000000000000000000602082015250565b60006127c4602183612056565b91506127cf82612768565b604082019050919050565b600060208201905081810360008301526127f3816127b7565b9050919050565b7f4552433732313a20617070726f76652063616c6c6572206973206e6f74206f7760008201527f6e6572206e6f7220617070726f76656420666f7220616c6c0000000000000000602082015250565b6000612856603883612056565b9150612861826127fa565b604082019050919050565b6000602082019050818103600083015261288581612849565b9050919050565b7f4552433732313a207472616e736665722063616c6c6572206973206e6f74206f60008201527f776e6572206e6f7220617070726f766564000000000000000000000000000000602082015250565b60006128e8603183612056565b91506128f38261288c565b604082019050919050565b60006020820190508181036000830152612917816128db565b9050919050565b7f4552433732313a206f776e657220717565727920666f72206e6f6e657869737460008201527f656e7420746f6b656e0000000000000000000000000000000000000000000000602082015250565b600061297a602983612056565b91506129858261291e565b604082019050919050565b600060208201905081810360008301526129a98161296d565b9050919050565b7f4552433732313a2062616c616e636520717565727920666f7220746865207a6560008201527f726f206164647265737300000000000000000000000000000000000000000000602082015250565b6000612a0c602a83612056565b9150612a17826129b0565b604082019050919050565b60006020820190508181036000830152612a3b816129ff565b9050919050565b7f4f776e61626c653a2063616c6c6572206973206e6f7420746865206f776e6572600082015250565b6000612a78602083612056565b9150612a8382612a42565b602082019050919050565b60006020820190508181036000830152612aa781612a6b565b9050919050565b6000604082019050612ac3600083018561219b565b612ad06020830184612314565b9392505050565b7f506172656e7420746f6b656e20616c7265616479206578697374730000000000600082015250565b6000612b0d601b83612056565b9150612b1882612ad7565b602082019050919050565b60006020820190508181036000830152612b3c81612b00565b9050919050565b600081519050612b52816121c5565b92915050565b600060208284031215612b6e57612b6d611f86565b5b6000612b7c84828501612b43565b91505092915050565b7f43616c6c657220646f6573206e6f74206f776e2074686520706172656e74207460008201527f6f6b656e00000000000000000000000000000000000000000000000000000000602082015250565b6000612be1602483612056565b9150612bec82612b85565b604082019050919050565b60006020820190508181036000830152612c1081612bd4565b9050919050565b7f4f776e61626c653a206e6577206f776e657220697320746865207a65726f206160008201527f6464726573730000000000000000000000000000000000000000000000000000602082015250565b6000612c73602683612056565b9150612c7e82612c17565b604082019050919050565b60006020820190508181036000830152612ca281612c66565b9050919050565b7f4552433732313a206f70657261746f7220717565727920666f72206e6f6e657860008201527f697374656e7420746f6b656e0000000000000000000000000000000000000000602082015250565b6000612d05602c83612056565b9150612d1082612ca9565b604082019050919050565b60006020820190508181036000830152612d3481612cf8565b9050919050565b7f4552433732313a207472616e736665722066726f6d20696e636f72726563742060008201527f6f776e6572000000000000000000000000000000000000000000000000000000602082015250565b6000612d97602583612056565b9150612da282612d3b565b604082019050919050565b60006020820190508181036000830152612dc681612d8a565b9050919050565b7f4552433732313a207472616e7366657220746f20746865207a65726f2061646460008201527f7265737300000000000000000000000000000000000000000000000000000000602082015250565b6000612e29602483612056565b9150612e3482612dcd565b604082019050919050565b60006020820190508181036000830152612e5881612e1c565b9050919050565b7f4e487b7100000000000000000000000000000000000000000000000000000000600052601160045260246000fd5b6000612e9982612106565b9150612ea483612106565b925082821015612eb757612eb6612e5f565b5b828203905092915050565b6000612ecd82612106565b9150612ed883612106565b9250827fffffffffffffffffffffffffffffffffffffffffffffffffffffffffffffffff03821115612f0d57612f0c612e5f565b5b828201905092915050565b7f4552433732313a20617070726f766520746f2063616c6c657200000000000000600082015250565b6000612f4e601983612056565b9150612f5982612f18565b602082019050919050565b60006020820190508181036000830152612f7d81612f41565b9050919050565b7f4552433732313a207472616e7366657220746f206e6f6e20455243373231526560008201527f63656976657220696d706c656d656e7465720000000000000000000000000000602082015250565b6000612fe0603283612056565b9150612feb82612f84565b604082019050919050565b6000602082019050818103600083015261300f81612fd3565b9050919050565b7f45524337323155524953746f726167653a2055524920717565727920666f722060008201527f6e6f6e6578697374656e7420746f6b656e000000000000000000000000000000602082015250565b6000613072603183612056565b915061307d82613016565b604082019050919050565b600060208201905081810360008301526130a181613065565b9050919050565b600081905092915050565b60006130be8261204b565b6130c881856130a8565b93506130d8818560208601612067565b80840191505092915050565b60006130f082856130b3565b91506130fc82846130b3565b91508190509392505050565b7f45524337323155524953746f726167653a2055524920736574206f66206e6f6e60008201527f6578697374656e7420746f6b656e000000000000000000000000000000000000602082015250565b6000613164602e83612056565b915061316f82613108565b604082019050919050565b6000602082019050818103600083015261319381613157565b9050919050565b600081519050919050565b600082825260208201905092915050565b60006131c18261319a565b6131cb81856131a5565b93506131db818560208601612067565b6131e48161209a565b840191505092915050565b6000608082019050613204600083018761219b565b613211602083018661219b565b61321e6040830185612314565b818103606083015261323081846131b6565b905095945050505050565b60008151905061324a81611fbc565b92915050565b60006020828403121561326657613265611f86565b5b60006132748482850161323b565b91505092915050565b7f4552433732314d657461646174613a2055524920717565727920666f72206e6f60008201527f6e6578697374656e7420746f6b656e0000000000000000000000000000000000602082015250565b60006132d9602f83612056565b91506132e48261327d565b604082019050919050565b60006020820190508181036000830152613308816132cc565b9050919050565b600061331a82612106565b91507fffffffffffffffffffffffffffffffffffffffffffffffffffffffffffffffff820361334c5761334b612e5f565b5b600182019050919050565b7f4e487b7100000000000000000000000000000000000000000000000000000000600052601260045260246000fd5b600061339182612106565b915061339c83612106565b9250826133ac576133ab613357565b5b828204905092915050565b60006133c282612106565b91506133cd83612106565b9250826133dd576133dc613357565b5b828206905092915050565b7f4e487b7100000000000000000000000000000000000000000000000000000000600052603260045260246000fd5b7f4552433732313a206d696e7420746f20746865207a65726f2061646472657373600082015250565b600061344d602083612056565b915061345882613417565b602082019050919050565b6000602082019050818103600083015261347c81613440565b9050919050565b7f4552433732313a20746f6b656e20616c7265616479206d696e74656400000000600082015250565b60006134b9601c83612056565b91506134c482613483565b602082019050919050565b600060208201905081810360008301526134e8816134ac565b905091905056fea2646970667358221220b2abaf288542c9a3c1e52cdfd11e8d4aa1d9035d3e027b30613940ccbfefd27664736f6c634300080e0033",
  "immutableReferences": {},
  "source": "/*\n   . *@O                . o@O                  O@O.                 .#@o.                 @@o.               . *@#o. .\n   . *@O                . o@O                . O@O .             . .#@o. .             . @@o. .             . *@#o. .\n     *@o.                  o@o.                  O@o.                 .##o.                 .@#o                  *@#*\n****o#Oo*****************o#o****OOo***OOo**OOo*oOOo*\n.....o@@@#.................O@@@#.................#@@@O................@@@@o................@@@@*................o@@@@.....\n     *@##O                 o@##O                 O@##o                .@@##*                @@##                *@@##.\n   . *@O..              . o@O.                 #@O.                .@@o.                @@o.              . *@#o\n   . *@O                . o@O                  #@O               . .@@o                 @@o. . .  .        . *@#o. .\n   . *@O        . .       o@O                  O@O                 .@@O               . @@o         . .   . *@#o.\n   . *@O    ...     .....O@O .        .     ..#@O.*****..@@o                 @@o..o.*..    . . *@#o.\n   . *@O  .    *oO*.*@O@O.**.     ..ooo#@O*o*********oooooo@@O.**..      ..***@@o.*o#O .OOo*  . *@#o.\n   . *@O   **o#o*Oo*.  O#O@O.oOO**o***o*o****#@Ooooo********oo***@@O.o*ooo*.***oooo@@o*@o o. @o*@@O  *@#o.\n   . *@O .##O@@*ooo# .@*O@O.**#o***oO#O**ooo*#@O.**ooo*********@@O*****o#O*oooooooo@@o*@. *@*#O#@* *@#o.\n   . *@O .@#O@#o**O#@@oO@O.oo***o@****oO*. #@O*.  ..o#********@@O.o@o****oO#o*o*****@@o.*@O OO*O.Oo@OO@*@#o.\n   . *@O   o@#o*ooO*.. o@O .**#O****@    #@O**. .. @*******O@@O.*@Ooo***o#o*******@@o.O.OOO*OO#* *@ *@#o.\n   . *@O   o@oO***o@      o@O     @*****#Oo***#@O.****o#OooOO***o@@O.o@ooo*o*O* ..... @@o   OoOoO*o*@ *@#o.\n   . *@O .o#o***@ .  . o@O   ...#O*****ooooo#@OOOOOoooo#@##@@o*o@@O*oo****OO     . @@o .  .*#.@.**oo*# *@#o\n   . *@O o#ooo#o .   o@O  ... o#oo******o*#@O.********o@##@@o**@@O***OOooO       @@o   . .@O*.o*o.@ *@#o\n   . *@O  O#o**oo##  . *O@O       .*oo******#@O.*********oooo****#@oooooO*...@@o    .OO*o.*.oOO *@#o.\n     *@O   @*o***Oo  .O@O#Oo......ooooOO#@OooooOoooooooOOOOo@@OOooOOo#@#Oo** @@o . @oO ***O*  *@#o. . ...\n.....*#o.   o.*O*.ooOo. o#OOoooooOOooooo*OO* .Oo*O**oo**oOOoooOO* o**oooO   ...OO*    *  ....oO. ..*OO*\n*OOOo...******oOOO*....ooOOoooooOo*ooOOooOO**o#o*ooOOoo*oOooo*oo.OOoo.........*Oooo.....\n     o@@@#     ......      O@@@O .o@@##@@ooO###O@@@@@#o@o**o*#@O .@@@@Ooo##o**O#.      @@@@ ... ....       *@@@@ .\n   . *@#OO               . o@#OO**oo    o@##.  #@#OOo#@******oo@@# .#@#O#.               @@#O              . *@@#O.\n   . *@O.               . o@O..    oooo.    #@O**@@OOOooOO#@@o@..@@o.  .  ...        @@o               . *@@o\n\nNFT Jail\nAn experimental project by Neon Nacho Labs\nhttps://neonnacho.xyz\n*/\n\n// SPDX-License-Identifier: MIT\npragma solidity ^0.8.14;\n\nimport \"@openzeppelin/contracts/token/ERC721/ERC721.sol\";\nimport \"@openzeppelin/contracts/token/ERC721/extensions/ERC721URIStorage.sol\";\nimport \"@openzeppelin/contracts/token/ERC721/IERC721.sol\";\nimport \"@openzeppelin/contracts/access/Ownable.sol\";\nimport \"@openzeppelin/contracts/utils/Counters.sol\";\n\ncontract NFTJail is ERC721, ERC721URIStorage, Ownable {\n\tusing Counters for Counters.Counter;\n\n\t// Starts counting at 1 instead of 0\n\tCounters.Counter public tokenIdCounter;\n\n\t// Track minted tokens by parent address and id\n\tmapping (bytes32 => bool) public parentTokenTracker;\n\n\tconstructor() ERC721(\"NFTJail\", \"NFTJAIL\") {}\n\n\tfunction _baseURI() internal pure override returns(string memory) {\n\t\treturn \"ipfs://\";\n\t}\n\n\t/**\n\t * Go to jail!\n\t * Mints an NFT based an existing one from a different contract.\n\t */\n\tfunction mint(address parentContractAddress, uint256 parentTokenId, string calldata _tokenURI) external payable {\n\t\tbytes32 parentHash = keccak256(abi.encode(parentContractAddress, parentTokenId));\n\t\t// Each parent address/token can only be minted once\n\t\trequire(!parentTokenTracker[parentHash], \"Parent token already exists\");\n\n\t\t// Caller must own the parent token\n\t\trequire(msg.sender == IERC721(parentContractAddress).ownerOf(parentTokenId), \"Caller does not own the parent token\");\n\n\t\t// Keep track of parent tokens to prevent duplicates\n\t\tparentTokenTracker[parentHash] = true;\n\n\t\ttokenIdCounter.increment();\n\t\t_safeMint(msg.sender, tokenIdCounter.current());\n\t\t_setTokenURI(tokenIdCounter.current(), _tokenURI);\n\t}\n\n\t/**\n\t * Receive function in case eth gets sent to the contract\n\t */\n\treceive() external payable {}\n\n\t// Override functions\n\tfunction _burn(uint256 tokenId) internal override(ERC721, ERC721URIStorage) {\n        super._burn(tokenId);\n    }\n\n    function tokenURI(uint256 tokenId)\n        public\n        view\n        override(ERC721, ERC721URIStorage)\n        returns (string memory)\n    {\n        return super.tokenURI(tokenId);\n    }\n}\n",
  "sourcePath": "/Users/trav/code/web3/neon-nacho-labs/contracts/NFTJail.sol",
  "compiler": {
    "name": "solc",
    "version": "0.8.14+commit.80d49f37.Emscripten.clang"
  },
  "schemaVersion": "3.4.7",
  "updatedAt": "2022-06-14T00:38:31.240Z",
  "networkType": "ethereum",
  "devdoc": {
    "kind": "dev",
    "methods": {
      "approve(address,uint256)": {
        "details": "See {IERC721-approve}."
      },
      "balanceOf(address)": {
        "details": "See {IERC721-balanceOf}."
      },
      "getApproved(uint256)": {
        "details": "See {IERC721-getApproved}."
      },
      "isApprovedForAll(address,address)": {
        "details": "See {IERC721-isApprovedForAll}."
      },
      "name()": {
        "details": "See {IERC721Metadata-name}."
      },
      "owner()": {
        "details": "Returns the address of the current owner."
      },
      "ownerOf(uint256)": {
        "details": "See {IERC721-ownerOf}."
      },
      "renounceOwnership()": {
        "details": "Leaves the contract without owner. It will not be possible to call `onlyOwner` functions anymore. Can only be called by the current owner. NOTE: Renouncing ownership will leave the contract without an owner, thereby removing any functionality that is only available to the owner."
      },
      "safeTransferFrom(address,address,uint256)": {
        "details": "See {IERC721-safeTransferFrom}."
      },
      "safeTransferFrom(address,address,uint256,bytes)": {
        "details": "See {IERC721-safeTransferFrom}."
      },
      "setApprovalForAll(address,bool)": {
        "details": "See {IERC721-setApprovalForAll}."
      },
      "supportsInterface(bytes4)": {
        "details": "See {IERC165-supportsInterface}."
      },
      "symbol()": {
        "details": "See {IERC721Metadata-symbol}."
      },
      "transferFrom(address,address,uint256)": {
        "details": "See {IERC721-transferFrom}."
      },
      "transferOwnership(address)": {
        "details": "Transfers ownership of the contract to a new account (`newOwner`). Can only be called by the current owner."
      }
    },
    "version": 1
  },
  "userdoc": {
    "kind": "user",
    "methods": {
      "mint(address,uint256,string)": {
        "notice": "Go to jail! Mints an NFT based an existing one from a different contract."
      }
    },
    "version": 1
  }
}