{
  "contractName": "NFTJail",
  "abi": [
    {
      "inputs": [],
      "stateMutability": "nonpayable",
      "type": "constructor"
    },
    {
      "anonymous": false,
      "inputs": [
        {
          "indexed": true,
          "internalType": "address",
          "name": "owner",
          "type": "address"
        },
        {
          "indexed": true,
          "internalType": "address",
          "name": "approved",
          "type": "address"
        },
        {
          "indexed": true,
          "internalType": "uint256",
          "name": "tokenId",
          "type": "uint256"
        }
      ],
      "name": "Approval",
      "type": "event"
    },
    {
      "anonymous": false,
      "inputs": [
        {
          "indexed": true,
          "internalType": "address",
          "name": "owner",
          "type": "address"
        },
        {
          "indexed": true,
          "internalType": "address",
          "name": "operator",
          "type": "address"
        },
        {
          "indexed": false,
          "internalType": "bool",
          "name": "approved",
          "type": "bool"
        }
      ],
      "name": "ApprovalForAll",
      "type": "event"
    },
    {
      "anonymous": false,
      "inputs": [
        {
          "indexed": true,
          "internalType": "address",
          "name": "previousOwner",
          "type": "address"
        },
        {
          "indexed": true,
          "internalType": "address",
          "name": "newOwner",
          "type": "address"
        }
      ],
      "name": "OwnershipTransferred",
      "type": "event"
    },
    {
      "anonymous": false,
      "inputs": [
        {
          "indexed": true,
          "internalType": "address",
          "name": "from",
          "type": "address"
        },
        {
          "indexed": true,
          "internalType": "address",
          "name": "to",
          "type": "address"
        },
        {
          "indexed": true,
          "internalType": "uint256",
          "name": "tokenId",
          "type": "uint256"
        }
      ],
      "name": "Transfer",
      "type": "event"
    },
    {
      "inputs": [
        {
          "internalType": "address",
          "name": "to",
          "type": "address"
        },
        {
          "internalType": "uint256",
          "name": "tokenId",
          "type": "uint256"
        }
      ],
      "name": "approve",
      "outputs": [],
      "stateMutability": "nonpayable",
      "type": "function"
    },
    {
      "inputs": [
        {
          "internalType": "address",
          "name": "owner",
          "type": "address"
        }
      ],
      "name": "balanceOf",
      "outputs": [
        {
          "internalType": "uint256",
          "name": "",
          "type": "uint256"
        }
      ],
      "stateMutability": "view",
      "type": "function",
      "constant": true
    },
    {
      "inputs": [
        {
          "internalType": "uint256",
          "name": "tokenId",
          "type": "uint256"
        }
      ],
      "name": "getApproved",
      "outputs": [
        {
          "internalType": "address",
          "name": "",
          "type": "address"
        }
      ],
      "stateMutability": "view",
      "type": "function",
      "constant": true
    },
    {
      "inputs": [
        {
          "internalType": "address",
          "name": "owner",
          "type": "address"
        },
        {
          "internalType": "address",
          "name": "operator",
          "type": "address"
        }
      ],
      "name": "isApprovedForAll",
      "outputs": [
        {
          "internalType": "bool",
          "name": "",
          "type": "bool"
        }
      ],
      "stateMutability": "view",
      "type": "function",
      "constant": true
    },
    {
      "inputs": [],
      "name": "name",
      "outputs": [
        {
          "internalType": "string",
          "name": "",
          "type": "string"
        }
      ],
      "stateMutability": "view",
      "type": "function",
      "constant": true
    },
    {
      "inputs": [],
      "name": "owner",
      "outputs": [
        {
          "internalType": "address",
          "name": "",
          "type": "address"
        }
      ],
      "stateMutability": "view",
      "type": "function",
      "constant": true
    },
    {
      "inputs": [
        {
          "internalType": "uint256",
          "name": "tokenId",
          "type": "uint256"
        }
      ],
      "name": "ownerOf",
      "outputs": [
        {
          "internalType": "address",
          "name": "",
          "type": "address"
        }
      ],
      "stateMutability": "view",
      "type": "function",
      "constant": true
    },
    {
      "inputs": [
        {
          "internalType": "bytes32",
          "name": "",
          "type": "bytes32"
        }
      ],
      "name": "parentTokenTracker",
      "outputs": [
        {
          "internalType": "bool",
          "name": "",
          "type": "bool"
        }
      ],
      "stateMutability": "view",
      "type": "function",
      "constant": true
    },
    {
      "inputs": [],
      "name": "renounceOwnership",
      "outputs": [],
      "stateMutability": "nonpayable",
      "type": "function"
    },
    {
      "inputs": [
        {
          "internalType": "address",
          "name": "from",
          "type": "address"
        },
        {
          "internalType": "address",
          "name": "to",
          "type": "address"
        },
        {
          "internalType": "uint256",
          "name": "tokenId",
          "type": "uint256"
        }
      ],
      "name": "safeTransferFrom",
      "outputs": [],
      "stateMutability": "nonpayable",
      "type": "function"
    },
    {
      "inputs": [
        {
          "internalType": "address",
          "name": "from",
          "type": "address"
        },
        {
          "internalType": "address",
          "name": "to",
          "type": "address"
        },
        {
          "internalType": "uint256",
          "name": "tokenId",
          "type": "uint256"
        },
        {
          "internalType": "bytes",
          "name": "_data",
          "type": "bytes"
        }
      ],
      "name": "safeTransferFrom",
      "outputs": [],
      "stateMutability": "nonpayable",
      "type": "function"
    },
    {
      "inputs": [
        {
          "internalType": "address",
          "name": "operator",
          "type": "address"
        },
        {
          "internalType": "bool",
          "name": "approved",
          "type": "bool"
        }
      ],
      "name": "setApprovalForAll",
      "outputs": [],
      "stateMutability": "nonpayable",
      "type": "function"
    },
    {
      "inputs": [
        {
          "internalType": "bytes4",
          "name": "interfaceId",
          "type": "bytes4"
        }
      ],
      "name": "supportsInterface",
      "outputs": [
        {
          "internalType": "bool",
          "name": "",
          "type": "bool"
        }
      ],
      "stateMutability": "view",
      "type": "function",
      "constant": true
    },
    {
      "inputs": [],
      "name": "symbol",
      "outputs": [
        {
          "internalType": "string",
          "name": "",
          "type": "string"
        }
      ],
      "stateMutability": "view",
      "type": "function",
      "constant": true
    },
    {
      "inputs": [],
      "name": "tokenIdCounter",
      "outputs": [
        {
          "internalType": "uint256",
          "name": "_value",
          "type": "uint256"
        }
      ],
      "stateMutability": "view",
      "type": "function",
      "constant": true
    },
    {
      "inputs": [
        {
          "internalType": "address",
          "name": "from",
          "type": "address"
        },
        {
          "internalType": "address",
          "name": "to",
          "type": "address"
        },
        {
          "internalType": "uint256",
          "name": "tokenId",
          "type": "uint256"
        }
      ],
      "name": "transferFrom",
      "outputs": [],
      "stateMutability": "nonpayable",
      "type": "function"
    },
    {
      "inputs": [
        {
          "internalType": "address",
          "name": "newOwner",
          "type": "address"
        }
      ],
      "name": "transferOwnership",
      "outputs": [],
      "stateMutability": "nonpayable",
      "type": "function"
    },
    {
      "stateMutability": "payable",
      "type": "receive",
      "payable": true
    },
    {
      "inputs": [
        {
          "internalType": "address",
          "name": "parentContractAddress",
          "type": "address"
        },
        {
          "internalType": "uint256",
          "name": "parentTokenId",
          "type": "uint256"
        },
        {
          "internalType": "string",
          "name": "_tokenURI",
          "type": "string"
        }
      ],
      "name": "mint",
      "outputs": [],
      "stateMutability": "payable",
      "type": "function",
      "payable": true
    },
    {
      "inputs": [],
      "name": "withdrawAll",
      "outputs": [],
      "stateMutability": "nonpayable",
      "type": "function"
    },
    {
      "inputs": [
        {
          "internalType": "uint256",
          "name": "tokenId",
          "type": "uint256"
        }
      ],
      "name": "tokenURI",
      "outputs": [
        {
          "internalType": "string",
          "name": "",
          "type": "string"
        }
      ],
      "stateMutability": "view",
      "type": "function",
      "constant": true
    }
  ],
  "bytecode": "0x60806040523480156200001157600080fd5b506040518060400160405280600781526020017f4e46544a61696c000000000000000000000000000000000000000000000000008152506040518060400160405280600781526020017f4e46544a41494c0000000000000000000000000000000000000000000000000081525081600090816200008f919062000412565b508060019081620000a1919062000412565b505050620000c4620000b8620000ca60201b60201c565b620000d260201b60201c565b620004f9565b600033905090565b6000600760009054906101000a900473ffffffffffffffffffffffffffffffffffffffff16905081600760006101000a81548173ffffffffffffffffffffffffffffffffffffffff021916908373ffffffffffffffffffffffffffffffffffffffff1602179055508173ffffffffffffffffffffffffffffffffffffffff168173ffffffffffffffffffffffffffffffffffffffff167f8be0079c531659141344cd1fd0a4f28419497f9722a3daafe3b4186f6b6457e060405160405180910390a35050565b600081519050919050565b7f4e487b7100000000000000000000000000000000000000000000000000000000600052604160045260246000fd5b7f4e487b7100000000000000000000000000000000000000000000000000000000600052602260045260246000fd5b600060028204905060018216806200021a57607f821691505b60208210810362000230576200022f620001d2565b5b50919050565b60008190508160005260206000209050919050565b60006020601f8301049050919050565b600082821b905092915050565b6000600883026200029a7fffffffffffffffffffffffffffffffffffffffffffffffffffffffffffffffff826200025b565b620002a686836200025b565b95508019841693508086168417925050509392505050565b6000819050919050565b6000819050919050565b6000620002f3620002ed620002e784620002be565b620002c8565b620002be565b9050919050565b6000819050919050565b6200030f83620002d2565b620003276200031e82620002fa565b84845462000268565b825550505050565b600090565b6200033e6200032f565b6200034b81848462000304565b505050565b5b8181101562000373576200036760008262000334565b60018101905062000351565b5050565b601f821115620003c2576200038c8162000236565b62000397846200024b565b81016020851015620003a7578190505b620003bf620003b6856200024b565b83018262000350565b50505b505050565b600082821c905092915050565b6000620003e760001984600802620003c7565b1980831691505092915050565b6000620004028383620003d4565b9150826002028217905092915050565b6200041d8262000198565b67ffffffffffffffff811115620004395762000438620001a3565b5b62000445825462000201565b6200045282828562000377565b600060209050601f8311600181146200048a576000841562000475578287015190505b620004818582620003f4565b865550620004f1565b601f1984166200049a8662000236565b60005b82811015620004c4578489015182556001820191506020850194506020810190506200049d565b86831015620004e45784890151620004e0601f891682620003d4565b8355505b6001600288020188555050505b505050505050565b6138f880620005096000396000f3fe6080604052600436106101235760003560e01c8063853828b6116100a0578063b88d4fde11610064578063b88d4fde146103de578063c87b56dd14610407578063d3fc986414610444578063e985e9c514610460578063f2fde38b1461049d5761012a565b8063853828b61461031d5780638da5cb5b1461033457806395d89b411461035f57806398bdf6f51461038a578063a22cb465146103b55761012a565b80632c48cb0c116100e75780632c48cb0c1461022657806342842e0e146102635780636352211e1461028c57806370a08231146102c9578063715018a6146103065761012a565b806301ffc9a71461012f57806306fdde031461016c578063081812fc14610197578063095ea7b3146101d457806323b872dd146101fd5761012a565b3661012a57005b600080fd5b34801561013b57600080fd5b506101566004803603810190610151919061208b565b6104c6565b60405161016391906120d3565b60405180910390f35b34801561017857600080fd5b506101816105a8565b60405161018e9190612187565b60405180910390f35b3480156101a357600080fd5b506101be60048036038101906101b991906121df565b61063a565b6040516101cb919061224d565b60405180910390f35b3480156101e057600080fd5b506101fb60048036038101906101f69190612294565b6106bf565b005b34801561020957600080fd5b50610224600480360381019061021f91906122d4565b6107d6565b005b34801561023257600080fd5b5061024d6004803603810190610248919061235d565b610836565b60405161025a91906120d3565b60405180910390f35b34801561026f57600080fd5b5061028a600480360381019061028591906122d4565b610856565b005b34801561029857600080fd5b506102b360048036038101906102ae91906121df565b610876565b6040516102c0919061224d565b60405180910390f35b3480156102d557600080fd5b506102f060048036038101906102eb919061238a565b610927565b6040516102fd91906123c6565b60405180910390f35b34801561031257600080fd5b5061031b6109de565b005b34801561032957600080fd5b50610332610a66565b005b34801561034057600080fd5b50610349610b91565b604051610356919061224d565b60405180910390f35b34801561036b57600080fd5b50610374610bbb565b6040516103819190612187565b60405180910390f35b34801561039657600080fd5b5061039f610c4d565b6040516103ac91906123c6565b60405180910390f35b3480156103c157600080fd5b506103dc60048036038101906103d7919061240d565b610c59565b005b3480156103ea57600080fd5b5061040560048036038101906104009190612582565b610c6f565b005b34801561041357600080fd5b5061042e600480360381019061042991906121df565b610cd1565b60405161043b9190612187565b60405180910390f35b61045e60048036038101906104599190612665565b610ce3565b005b34801561046c57600080fd5b50610487600480360381019061048291906126d9565b610eff565b60405161049491906120d3565b60405180910390f35b3480156104a957600080fd5b506104c460048036038101906104bf919061238a565b610f93565b005b60007f80ac58cd000000000000000000000000000000000000000000000000000000007bffffffffffffffffffffffffffffffffffffffffffffffffffffffff1916827bffffffffffffffffffffffffffffffffffffffffffffffffffffffff1916148061059157507f5b5e139f000000000000000000000000000000000000000000000000000000007bffffffffffffffffffffffffffffffffffffffffffffffffffffffff1916827bffffffffffffffffffffffffffffffffffffffffffffffffffffffff1916145b806105a157506105a08261108a565b5b9050919050565b6060600080546105b790612748565b80601f01602080910402602001604051908101604052809291908181526020018280546105e390612748565b80156106305780601f1061060557610100808354040283529160200191610630565b820191906000526020600020905b81548152906001019060200180831161061357829003601f168201915b5050505050905090565b6000610645826110f4565b610684576040517f08c379a000000000000000000000000000000000000000000000000000000000815260040161067b906127eb565b60405180910390fd5b6004600083815260200190815260200160002060009054906101000a900473ffffffffffffffffffffffffffffffffffffffff169050919050565b60006106ca82610876565b90508073ffffffffffffffffffffffffffffffffffffffff168373ffffffffffffffffffffffffffffffffffffffff160361073a576040517f08c379a00000000000000000000000000000000000000000000000000000000081526004016107319061287d565b60405180910390fd5b8073ffffffffffffffffffffffffffffffffffffffff16610759611160565b73ffffffffffffffffffffffffffffffffffffffff161480610788575061078781610782611160565b610eff565b5b6107c7576040517f08c379a00000000000000000000000000000000000000000000000000000000081526004016107be9061290f565b60405180910390fd5b6107d18383611168565b505050565b6107e76107e1611160565b82611221565b610826576040517f08c379a000000000000000000000000000000000000000000000000000000000815260040161081d906129a1565b60405180910390fd5b6108318383836112ff565b505050565b60096020528060005260406000206000915054906101000a900460ff1681565b61087183838360405180602001604052806000815250610c6f565b505050565b6000806002600084815260200190815260200160002060009054906101000a900473ffffffffffffffffffffffffffffffffffffffff169050600073ffffffffffffffffffffffffffffffffffffffff168173ffffffffffffffffffffffffffffffffffffffff160361091e576040517f08c379a000000000000000000000000000000000000000000000000000000000815260040161091590612a33565b60405180910390fd5b80915050919050565b60008073ffffffffffffffffffffffffffffffffffffffff168273ffffffffffffffffffffffffffffffffffffffff1603610997576040517f08c379a000000000000000000000000000000000000000000000000000000000815260040161098e90612ac5565b60405180910390fd5b600360008373ffffffffffffffffffffffffffffffffffffffff1673ffffffffffffffffffffffffffffffffffffffff168152602001908152602001600020549050919050565b6109e6611160565b73ffffffffffffffffffffffffffffffffffffffff16610a04610b91565b73ffffffffffffffffffffffffffffffffffffffff1614610a5a576040517f08c379a0000000000000000000000000000000000000000000000000000000008152600401610a5190612b31565b60405180910390fd5b610a646000611565565b565b610a6e611160565b73ffffffffffffffffffffffffffffffffffffffff16610a8c610b91565b73ffffffffffffffffffffffffffffffffffffffff1614610ae2576040517f08c379a0000000000000000000000000000000000000000000000000000000008152600401610ad990612b31565b60405180910390fd5b60003373ffffffffffffffffffffffffffffffffffffffff1647604051610b0890612b82565b60006040518083038185875af1925050503d8060008114610b45576040519150601f19603f3d011682016040523d82523d6000602084013e610b4a565b606091505b5050905080610b8e576040517f08c379a0000000000000000000000000000000000000000000000000000000008152600401610b8590612be3565b60405180910390fd5b50565b6000600760009054906101000a900473ffffffffffffffffffffffffffffffffffffffff16905090565b606060018054610bca90612748565b80601f0160208091040260200160405190810160405280929190818152602001828054610bf690612748565b8015610c435780601f10610c1857610100808354040283529160200191610c43565b820191906000526020600020905b815481529060010190602001808311610c2657829003601f168201915b5050505050905090565b60088060000154905081565b610c6b610c64611160565b838361162b565b5050565b610c80610c7a611160565b83611221565b610cbf576040517f08c379a0000000000000000000000000000000000000000000000000000000008152600401610cb6906129a1565b60405180910390fd5b610ccb84848484611797565b50505050565b6060610cdc826117f3565b9050919050565b60008484604051602001610cf8929190612c03565b6040516020818303038152906040528051906020012090506009600082815260200190815260200160002060009054906101000a900460ff1615610d71576040517f08c379a0000000000000000000000000000000000000000000000000000000008152600401610d6890612c78565b60405180910390fd5b8473ffffffffffffffffffffffffffffffffffffffff16636352211e856040518263ffffffff1660e01b8152600401610daa91906123c6565b602060405180830381865afa158015610dc7573d6000803e3d6000fd5b505050506040513d601f19601f82011682018060405250810190610deb9190612cad565b73ffffffffffffffffffffffffffffffffffffffff163373ffffffffffffffffffffffffffffffffffffffff1614610e58576040517f08c379a0000000000000000000000000000000000000000000000000000000008152600401610e4f90612d4c565b60405180910390fd5b60016009600083815260200190815260200160002060006101000a81548160ff021916908315150217905550610e8e6008611944565b610ea133610e9c600861195a565b611968565b610ef8610eae600861195a565b84848080601f016020809104026020016040519081016040528093929190818152602001838380828437600081840152601f19601f82011690508083019250505050505050611986565b5050505050565b6000600560008473ffffffffffffffffffffffffffffffffffffffff1673ffffffffffffffffffffffffffffffffffffffff16815260200190815260200160002060008373ffffffffffffffffffffffffffffffffffffffff1673ffffffffffffffffffffffffffffffffffffffff16815260200190815260200160002060009054906101000a900460ff16905092915050565b610f9b611160565b73ffffffffffffffffffffffffffffffffffffffff16610fb9610b91565b73ffffffffffffffffffffffffffffffffffffffff161461100f576040517f08c379a000000000000000000000000000000000000000000000000000000000815260040161100690612b31565b60405180910390fd5b600073ffffffffffffffffffffffffffffffffffffffff168173ffffffffffffffffffffffffffffffffffffffff160361107e576040517f08c379a000000000000000000000000000000000000000000000000000000000815260040161107590612dde565b60405180910390fd5b61108781611565565b50565b60007f01ffc9a7000000000000000000000000000000000000000000000000000000007bffffffffffffffffffffffffffffffffffffffffffffffffffffffff1916827bffffffffffffffffffffffffffffffffffffffffffffffffffffffff1916149050919050565b60008073ffffffffffffffffffffffffffffffffffffffff166002600084815260200190815260200160002060009054906101000a900473ffffffffffffffffffffffffffffffffffffffff1673ffffffffffffffffffffffffffffffffffffffff1614159050919050565b600033905090565b816004600083815260200190815260200160002060006101000a81548173ffffffffffffffffffffffffffffffffffffffff021916908373ffffffffffffffffffffffffffffffffffffffff160217905550808273ffffffffffffffffffffffffffffffffffffffff166111db83610876565b73ffffffffffffffffffffffffffffffffffffffff167f8c5be1e5ebec7d5bd14f71427d1e84f3dd0314c0f7b2291e5b200ac8c7c3b92560405160405180910390a45050565b600061122c826110f4565b61126b576040517f08c379a000000000000000000000000000000000000000000000000000000000815260040161126290612e70565b60405180910390fd5b600061127683610876565b90508073ffffffffffffffffffffffffffffffffffffffff168473ffffffffffffffffffffffffffffffffffffffff1614806112b857506112b78185610eff565b5b806112f657508373ffffffffffffffffffffffffffffffffffffffff166112de8461063a565b73ffffffffffffffffffffffffffffffffffffffff16145b91505092915050565b8273ffffffffffffffffffffffffffffffffffffffff1661131f82610876565b73ffffffffffffffffffffffffffffffffffffffff1614611375576040517f08c379a000000000000000000000000000000000000000000000000000000000815260040161136c90612f02565b60405180910390fd5b600073ffffffffffffffffffffffffffffffffffffffff168273ffffffffffffffffffffffffffffffffffffffff16036113e4576040517f08c379a00000000000000000000000000000000000000000000000000000000081526004016113db90612f94565b60405180910390fd5b6113ef8383836119f3565b6113fa600082611168565b6001600360008573ffffffffffffffffffffffffffffffffffffffff1673ffffffffffffffffffffffffffffffffffffffff168152602001908152602001600020600082825461144a9190612fe3565b925050819055506001600360008473ffffffffffffffffffffffffffffffffffffffff1673ffffffffffffffffffffffffffffffffffffffff16815260200190815260200160002060008282546114a19190613017565b92505081905550816002600083815260200190815260200160002060006101000a81548173ffffffffffffffffffffffffffffffffffffffff021916908373ffffffffffffffffffffffffffffffffffffffff160217905550808273ffffffffffffffffffffffffffffffffffffffff168473ffffffffffffffffffffffffffffffffffffffff167fddf252ad1be2c89b69c2b068fc378daa952ba7f163c4a11628f55a4df523b3ef60405160405180910390a46115608383836119f8565b505050565b6000600760009054906101000a900473ffffffffffffffffffffffffffffffffffffffff16905081600760006101000a81548173ffffffffffffffffffffffffffffffffffffffff021916908373ffffffffffffffffffffffffffffffffffffffff1602179055508173ffffffffffffffffffffffffffffffffffffffff168173ffffffffffffffffffffffffffffffffffffffff167f8be0079c531659141344cd1fd0a4f28419497f9722a3daafe3b4186f6b6457e060405160405180910390a35050565b8173ffffffffffffffffffffffffffffffffffffffff168373ffffffffffffffffffffffffffffffffffffffff1603611699576040517f08c379a0000000000000000000000000000000000000000000000000000000008152600401611690906130b9565b60405180910390fd5b80600560008573ffffffffffffffffffffffffffffffffffffffff1673ffffffffffffffffffffffffffffffffffffffff16815260200190815260200160002060008473ffffffffffffffffffffffffffffffffffffffff1673ffffffffffffffffffffffffffffffffffffffff16815260200190815260200160002060006101000a81548160ff0219169083151502179055508173ffffffffffffffffffffffffffffffffffffffff168373ffffffffffffffffffffffffffffffffffffffff167f17307eab39ab6107e8899845ad3d59bd9653f200f220920489ca2b5937696c318360405161178a91906120d3565b60405180910390a3505050565b6117a28484846112ff565b6117ae848484846119fd565b6117ed576040517f08c379a00000000000000000000000000000000000000000000000000000000081526004016117e49061314b565b60405180910390fd5b50505050565b60606117fe826110f4565b61183d576040517f08c379a0000000000000000000000000000000000000000000000000000000008152600401611834906131dd565b60405180910390fd5b600060066000848152602001908152602001600020805461185d90612748565b80601f016020809104026020016040519081016040528092919081815260200182805461188990612748565b80156118d65780601f106118ab576101008083540402835291602001916118d6565b820191906000526020600020905b8154815290600101906020018083116118b957829003601f168201915b5050505050905060006118e7611b84565b905060008151036118fc57819250505061193f565b600082511115611931578082604051602001611919929190613239565b6040516020818303038152906040529250505061193f565b61193a84611bc1565b925050505b919050565b6001816000016000828254019250508190555050565b600081600001549050919050565b611982828260405180602001604052806000815250611c68565b5050565b61198f826110f4565b6119ce576040517f08c379a00000000000000000000000000000000000000000000000000000000081526004016119c5906132cf565b60405180910390fd5b806006600084815260200190815260200160002090816119ee919061349b565b505050565b505050565b505050565b6000611a1e8473ffffffffffffffffffffffffffffffffffffffff16611cc3565b15611b77578373ffffffffffffffffffffffffffffffffffffffff1663150b7a02611a47611160565b8786866040518563ffffffff1660e01b8152600401611a6994939291906135c2565b6020604051808303816000875af1925050508015611aa557506040513d601f19601f82011682018060405250810190611aa29190613623565b60015b611b27573d8060008114611ad5576040519150601f19603f3d011682016040523d82523d6000602084013e611ada565b606091505b506000815103611b1f576040517f08c379a0000000000000000000000000000000000000000000000000000000008152600401611b169061314b565b60405180910390fd5b805181602001fd5b63150b7a0260e01b7bffffffffffffffffffffffffffffffffffffffffffffffffffffffff1916817bffffffffffffffffffffffffffffffffffffffffffffffffffffffff191614915050611b7c565b600190505b949350505050565b60606040518060400160405280600781526020017f697066733a2f2f00000000000000000000000000000000000000000000000000815250905090565b6060611bcc826110f4565b611c0b576040517f08c379a0000000000000000000000000000000000000000000000000000000008152600401611c02906136c2565b60405180910390fd5b6000611c15611b84565b90506000815111611c355760405180602001604052806000815250611c60565b80611c3f84611ce6565b604051602001611c50929190613239565b6040516020818303038152906040525b915050919050565b611c728383611e46565b611c7f60008484846119fd565b611cbe576040517f08c379a0000000000000000000000000000000000000000000000000000000008152600401611cb59061314b565b60405180910390fd5b505050565b6000808273ffffffffffffffffffffffffffffffffffffffff163b119050919050565b606060008203611d2d576040518060400160405280600181526020017f30000000000000000000000000000000000000000000000000000000000000008152509050611e41565b600082905060005b60008214611d5f578080611d48906136e2565b915050600a82611d589190613759565b9150611d35565b60008167ffffffffffffffff811115611d7b57611d7a612457565b5b6040519080825280601f01601f191660200182016040528015611dad5781602001600182028036833780820191505090505b5090505b60008514611e3a57600182611dc69190612fe3565b9150600a85611dd5919061378a565b6030611de19190613017565b60f81b818381518110611df757611df66137bb565b5b60200101907effffffffffffffffffffffffffffffffffffffffffffffffffffffffffffff1916908160001a905350600a85611e339190613759565b9450611db1565b8093505050505b919050565b600073ffffffffffffffffffffffffffffffffffffffff168273ffffffffffffffffffffffffffffffffffffffff1603611eb5576040517f08c379a0000000000000000000000000000000000000000000000000000000008152600401611eac90613836565b60405180910390fd5b611ebe816110f4565b15611efe576040517f08c379a0000000000000000000000000000000000000000000000000000000008152600401611ef5906138a2565b60405180910390fd5b611f0a600083836119f3565b6001600360008473ffffffffffffffffffffffffffffffffffffffff1673ffffffffffffffffffffffffffffffffffffffff1681526020019081526020016000206000828254611f5a9190613017565b92505081905550816002600083815260200190815260200160002060006101000a81548173ffffffffffffffffffffffffffffffffffffffff021916908373ffffffffffffffffffffffffffffffffffffffff160217905550808273ffffffffffffffffffffffffffffffffffffffff16600073ffffffffffffffffffffffffffffffffffffffff167fddf252ad1be2c89b69c2b068fc378daa952ba7f163c4a11628f55a4df523b3ef60405160405180910390a461201b600083836119f8565b5050565b6000604051905090565b600080fd5b600080fd5b60007fffffffff0000000000000000000000000000000000000000000000000000000082169050919050565b61206881612033565b811461207357600080fd5b50565b6000813590506120858161205f565b92915050565b6000602082840312156120a1576120a0612029565b5b60006120af84828501612076565b91505092915050565b60008115159050919050565b6120cd816120b8565b82525050565b60006020820190506120e860008301846120c4565b92915050565b600081519050919050565b600082825260208201905092915050565b60005b8381101561212857808201518184015260208101905061210d565b83811115612137576000848401525b50505050565b6000601f19601f8301169050919050565b6000612159826120ee565b61216381856120f9565b935061217381856020860161210a565b61217c8161213d565b840191505092915050565b600060208201905081810360008301526121a1818461214e565b905092915050565b6000819050919050565b6121bc816121a9565b81146121c757600080fd5b50565b6000813590506121d9816121b3565b92915050565b6000602082840312156121f5576121f4612029565b5b6000612203848285016121ca565b91505092915050565b600073ffffffffffffffffffffffffffffffffffffffff82169050919050565b60006122378261220c565b9050919050565b6122478161222c565b82525050565b6000602082019050612262600083018461223e565b92915050565b6122718161222c565b811461227c57600080fd5b50565b60008135905061228e81612268565b92915050565b600080604083850312156122ab576122aa612029565b5b60006122b98582860161227f565b92505060206122ca858286016121ca565b9150509250929050565b6000806000606084860312156122ed576122ec612029565b5b60006122fb8682870161227f565b935050602061230c8682870161227f565b925050604061231d868287016121ca565b9150509250925092565b6000819050919050565b61233a81612327565b811461234557600080fd5b50565b60008135905061235781612331565b92915050565b60006020828403121561237357612372612029565b5b600061238184828501612348565b91505092915050565b6000602082840312156123a05761239f612029565b5b60006123ae8482850161227f565b91505092915050565b6123c0816121a9565b82525050565b60006020820190506123db60008301846123b7565b92915050565b6123ea816120b8565b81146123f557600080fd5b50565b600081359050612407816123e1565b92915050565b6000806040838503121561242457612423612029565b5b60006124328582860161227f565b9250506020612443858286016123f8565b9150509250929050565b600080fd5b600080fd5b7f4e487b7100000000000000000000000000000000000000000000000000000000600052604160045260246000fd5b61248f8261213d565b810181811067ffffffffffffffff821117156124ae576124ad612457565b5b80604052505050565b60006124c161201f565b90506124cd8282612486565b919050565b600067ffffffffffffffff8211156124ed576124ec612457565b5b6124f68261213d565b9050602081019050919050565b82818337600083830152505050565b6000612525612520846124d2565b6124b7565b90508281526020810184848401111561254157612540612452565b5b61254c848285612503565b509392505050565b600082601f8301126125695761256861244d565b5b8135612579848260208601612512565b91505092915050565b6000806000806080858703121561259c5761259b612029565b5b60006125aa8782880161227f565b94505060206125bb8782880161227f565b93505060406125cc878288016121ca565b925050606085013567ffffffffffffffff8111156125ed576125ec61202e565b5b6125f987828801612554565b91505092959194509250565b600080fd5b600080fd5b60008083601f8401126126255761262461244d565b5b8235905067ffffffffffffffff81111561264257612641612605565b5b60208301915083600182028301111561265e5761265d61260a565b5b9250929050565b6000806000806060858703121561267f5761267e612029565b5b600061268d8782880161227f565b945050602061269e878288016121ca565b935050604085013567ffffffffffffffff8111156126bf576126be61202e565b5b6126cb8782880161260f565b925092505092959194509250565b600080604083850312156126f0576126ef612029565b5b60006126fe8582860161227f565b925050602061270f8582860161227f565b9150509250929050565b7f4e487b7100000000000000000000000000000000000000000000000000000000600052602260045260246000fd5b6000600282049050600182168061276057607f821691505b60208210810361277357612772612719565b5b50919050565b7f4552433732313a20617070726f76656420717565727920666f72206e6f6e657860008201527f697374656e7420746f6b656e0000000000000000000000000000000000000000602082015250565b60006127d5602c836120f9565b91506127e082612779565b604082019050919050565b60006020820190508181036000830152612804816127c8565b9050919050565b7f4552433732313a20617070726f76616c20746f2063757272656e74206f776e6560008201527f7200000000000000000000000000000000000000000000000000000000000000602082015250565b60006128676021836120f9565b91506128728261280b565b604082019050919050565b600060208201905081810360008301526128968161285a565b9050919050565b7f4552433732313a20617070726f76652063616c6c6572206973206e6f74206f7760008201527f6e6572206e6f7220617070726f76656420666f7220616c6c0000000000000000602082015250565b60006128f96038836120f9565b91506129048261289d565b604082019050919050565b60006020820190508181036000830152612928816128ec565b9050919050565b7f4552433732313a207472616e736665722063616c6c6572206973206e6f74206f60008201527f776e6572206e6f7220617070726f766564000000000000000000000000000000602082015250565b600061298b6031836120f9565b91506129968261292f565b604082019050919050565b600060208201905081810360008301526129ba8161297e565b9050919050565b7f4552433732313a206f776e657220717565727920666f72206e6f6e657869737460008201527f656e7420746f6b656e0000000000000000000000000000000000000000000000602082015250565b6000612a1d6029836120f9565b9150612a28826129c1565b604082019050919050565b60006020820190508181036000830152612a4c81612a10565b9050919050565b7f4552433732313a2062616c616e636520717565727920666f7220746865207a6560008201527f726f206164647265737300000000000000000000000000000000000000000000602082015250565b6000612aaf602a836120f9565b9150612aba82612a53565b604082019050919050565b60006020820190508181036000830152612ade81612aa2565b9050919050565b7f4f776e61626c653a2063616c6c6572206973206e6f7420746865206f776e6572600082015250565b6000612b1b6020836120f9565b9150612b2682612ae5565b602082019050919050565b60006020820190508181036000830152612b4a81612b0e565b9050919050565b600081905092915050565b50565b6000612b6c600083612b51565b9150612b7782612b5c565b600082019050919050565b6000612b8d82612b5f565b9150819050919050565b7f5769746864726177616c206661696c6564000000000000000000000000000000600082015250565b6000612bcd6011836120f9565b9150612bd882612b97565b602082019050919050565b60006020820190508181036000830152612bfc81612bc0565b9050919050565b6000604082019050612c18600083018561223e565b612c2560208301846123b7565b9392505050565b7f506172656e7420746f6b656e20616c7265616479206578697374730000000000600082015250565b6000612c62601b836120f9565b9150612c6d82612c2c565b602082019050919050565b60006020820190508181036000830152612c9181612c55565b9050919050565b600081519050612ca781612268565b92915050565b600060208284031215612cc357612cc2612029565b5b6000612cd184828501612c98565b91505092915050565b7f43616c6c657220646f6573206e6f74206f776e2074686520706172656e74207460008201527f6f6b656e00000000000000000000000000000000000000000000000000000000602082015250565b6000612d366024836120f9565b9150612d4182612cda565b604082019050919050565b60006020820190508181036000830152612d6581612d29565b9050919050565b7f4f776e61626c653a206e6577206f776e657220697320746865207a65726f206160008201527f6464726573730000000000000000000000000000000000000000000000000000602082015250565b6000612dc86026836120f9565b9150612dd382612d6c565b604082019050919050565b60006020820190508181036000830152612df781612dbb565b9050919050565b7f4552433732313a206f70657261746f7220717565727920666f72206e6f6e657860008201527f697374656e7420746f6b656e0000000000000000000000000000000000000000602082015250565b6000612e5a602c836120f9565b9150612e6582612dfe565b604082019050919050565b60006020820190508181036000830152612e8981612e4d565b9050919050565b7f4552433732313a207472616e736665722066726f6d20696e636f72726563742060008201527f6f776e6572000000000000000000000000000000000000000000000000000000602082015250565b6000612eec6025836120f9565b9150612ef782612e90565b604082019050919050565b60006020820190508181036000830152612f1b81612edf565b9050919050565b7f4552433732313a207472616e7366657220746f20746865207a65726f2061646460008201527f7265737300000000000000000000000000000000000000000000000000000000602082015250565b6000612f7e6024836120f9565b9150612f8982612f22565b604082019050919050565b60006020820190508181036000830152612fad81612f71565b9050919050565b7f4e487b7100000000000000000000000000000000000000000000000000000000600052601160045260246000fd5b6000612fee826121a9565b9150612ff9836121a9565b92508282101561300c5761300b612fb4565b5b828203905092915050565b6000613022826121a9565b915061302d836121a9565b9250827fffffffffffffffffffffffffffffffffffffffffffffffffffffffffffffffff0382111561306257613061612fb4565b5b828201905092915050565b7f4552433732313a20617070726f766520746f2063616c6c657200000000000000600082015250565b60006130a36019836120f9565b91506130ae8261306d565b602082019050919050565b600060208201905081810360008301526130d281613096565b9050919050565b7f4552433732313a207472616e7366657220746f206e6f6e20455243373231526560008201527f63656976657220696d706c656d656e7465720000000000000000000000000000602082015250565b60006131356032836120f9565b9150613140826130d9565b604082019050919050565b6000602082019050818103600083015261316481613128565b9050919050565b7f45524337323155524953746f726167653a2055524920717565727920666f722060008201527f6e6f6e6578697374656e7420746f6b656e000000000000000000000000000000602082015250565b60006131c76031836120f9565b91506131d28261316b565b604082019050919050565b600060208201905081810360008301526131f6816131ba565b9050919050565b600081905092915050565b6000613213826120ee565b61321d81856131fd565b935061322d81856020860161210a565b80840191505092915050565b60006132458285613208565b91506132518284613208565b91508190509392505050565b7f45524337323155524953746f726167653a2055524920736574206f66206e6f6e60008201527f6578697374656e7420746f6b656e000000000000000000000000000000000000602082015250565b60006132b9602e836120f9565b91506132c48261325d565b604082019050919050565b600060208201905081810360008301526132e8816132ac565b9050919050565b60008190508160005260206000209050919050565b60006020601f8301049050919050565b600082821b905092915050565b6000600883026133517fffffffffffffffffffffffffffffffffffffffffffffffffffffffffffffffff82613314565b61335b8683613314565b95508019841693508086168417925050509392505050565b6000819050919050565b600061339861339361338e846121a9565b613373565b6121a9565b9050919050565b6000819050919050565b6133b28361337d565b6133c66133be8261339f565b848454613321565b825550505050565b600090565b6133db6133ce565b6133e68184846133a9565b505050565b5b8181101561340a576133ff6000826133d3565b6001810190506133ec565b5050565b601f82111561344f57613420816132ef565b61342984613304565b81016020851015613438578190505b61344c61344485613304565b8301826133eb565b50505b505050565b600082821c905092915050565b600061347260001984600802613454565b1980831691505092915050565b600061348b8383613461565b9150826002028217905092915050565b6134a4826120ee565b67ffffffffffffffff8111156134bd576134bc612457565b5b6134c78254612748565b6134d282828561340e565b600060209050601f83116001811461350557600084156134f3578287015190505b6134fd858261347f565b865550613565565b601f198416613513866132ef565b60005b8281101561353b57848901518255600182019150602085019450602081019050613516565b868310156135585784890151613554601f891682613461565b8355505b6001600288020188555050505b505050505050565b600081519050919050565b600082825260208201905092915050565b60006135948261356d565b61359e8185613578565b93506135ae81856020860161210a565b6135b78161213d565b840191505092915050565b60006080820190506135d7600083018761223e565b6135e4602083018661223e565b6135f160408301856123b7565b81810360608301526136038184613589565b905095945050505050565b60008151905061361d8161205f565b92915050565b60006020828403121561363957613638612029565b5b60006136478482850161360e565b91505092915050565b7f4552433732314d657461646174613a2055524920717565727920666f72206e6f60008201527f6e6578697374656e7420746f6b656e0000000000000000000000000000000000602082015250565b60006136ac602f836120f9565b91506136b782613650565b604082019050919050565b600060208201905081810360008301526136db8161369f565b9050919050565b60006136ed826121a9565b91507fffffffffffffffffffffffffffffffffffffffffffffffffffffffffffffffff820361371f5761371e612fb4565b5b600182019050919050565b7f4e487b7100000000000000000000000000000000000000000000000000000000600052601260045260246000fd5b6000613764826121a9565b915061376f836121a9565b92508261377f5761377e61372a565b5b828204905092915050565b6000613795826121a9565b91506137a0836121a9565b9250826137b0576137af61372a565b5b828206905092915050565b7f4e487b7100000000000000000000000000000000000000000000000000000000600052603260045260246000fd5b7f4552433732313a206d696e7420746f20746865207a65726f2061646472657373600082015250565b60006138206020836120f9565b915061382b826137ea565b602082019050919050565b6000602082019050818103600083015261384f81613813565b9050919050565b7f4552433732313a20746f6b656e20616c7265616479206d696e74656400000000600082015250565b600061388c601c836120f9565b915061389782613856565b602082019050919050565b600060208201905081810360008301526138bb8161387f565b905091905056fea26469706673582212203644eb9cb348e7bfb3440650b7188f5c8b2fdbbd8068c8e57c0af42b40ec49ad64736f6c634300080f0033",
  "immutableReferences": {},
  "source": "/*\n   . *@O                . o@O                  O@O.                 .#@o.                 @@o.               . *@#o.\n   . *@O                . o@O                . O@O .             . .#@o. .             . @@o. .             . *@#o.\n     *@o.                  o@o.                  O@o.                 .##o.                 .@#o                  *@#*\n****o#Oo*****************o#o****OOo***OOo**OOo*oOOo*\n.....o@@@#.................O@@@#.................#@@@O................@@@@o................@@@@*................o@@@@\n     *@##O                 o@##O                 O@##o                .@@##*                @@##                *@@##.\n   . *@O..              . o@O.                 #@O.                .@@o.                @@o.              . *@#o\n   . *@O                . o@O                  #@O               . .@@o                 @@o. . .  .        . *@#o.\n   . *@O        . .       o@O                  O@O                 .@@O               . @@o         . .   . *@#o.\n   . *@O    ...     .....O@O .        .     ..#@O.*****..@@o                 @@o..o.*..    . . *@#o.\n   . *@O  .    *oO*.*@O@O.**.     ..ooo#@O*o*********oooooo@@O.**..      ..***@@o.*o#O .OOo*  . *@#o.\n   . *@O   **o#o*Oo*.  O#O@O.oOO**o***o*o****#@Ooooo********oo***@@O.o*ooo*.***oooo@@o*@o o. @o*@@O  *@#o.\n   . *@O .##O@@*ooo# .@*O@O.**#o***oO#O**ooo*#@O.**ooo*********@@O*****o#O*oooooooo@@o*@. *@*#O#@* *@#o.\n   . *@O .@#O@#o**O#@@oO@O.oo***o@****oO*. #@O*.  ..o#********@@O.o@o****oO#o*o*****@@o.*@O OO*O.Oo@OO@*@#o.\n   . *@O   o@#o*ooO*.. o@O .**#O****@    #@O**. .. @*******O@@O.*@Ooo***o#o*******@@o.O.OOO*OO#* *@ *@#o.\n   . *@O   o@oO***o@      o@O     @*****#Oo***#@O.****o#OooOO***o@@O.o@ooo*o*O* ..... @@o   OoOoO*o*@ *@#o.\n   . *@O .o#o***@ .  . o@O   ...#O*****ooooo#@OOOOOoooo#@##@@o*o@@O*oo****OO     . @@o .  .*#.@.**oo*# *@#o\n   . *@O o#ooo#o .   o@O  ... o#oo******o*#@O.********o@##@@o**@@O***OOooO       @@o   . .@O*.o*o.@ *@#o\n   . *@O  O#o**oo##  . *O@O       .*oo******#@O.*********oooo****#@oooooO*...@@o    .OO*o.*.oOO *@#o.\n     *@O   @*o***Oo  .O@O#Oo......ooooOO#@OooooOoooooooOOOOo@@OOooOOo#@#Oo** @@o . @oO ***O*  *@#o.\n.....*#o.   o.*O*.ooOo. o#OOoooooOOooooo*OO* .Oo*O**oo**oOOoooOO* o**oooO   ...OO*    *  ....oO. ..*OO*\n*OOOo...******oOOO*....ooOOoooooOo*ooOOooOO**o#o*ooOOoo*oOooo*oo.OOoo.........*Oooo\n     o@@@#     ......      O@@@O .o@@##@@ooO###O@@@@@#o@o**o*#@O .@@@@Ooo##o**O#.      @@@@ ... ....       *@@@@\n   . *@#OO               . o@#OO**oo    o@##.  #@#OOo#@******oo@@# .#@#O#.               @@#O              . *@@#O.\n   . *@O.               . o@O..    oooo.    #@O**@@OOOooOO#@@o@..@@o.  .  ...        @@o               . *@@o\n\nNFT Jail\nAn experimental project by Neon Nacho Labs\nhttps://neonnacho.xyz\n\nFind a bug? Let me know.\nhttps://github.com/Neon-Nacho-Labs\n*/\n\n// SPDX-License-Identifier: MIT\npragma solidity ^0.8.14;\n\nimport \"@openzeppelin/contracts/token/ERC721/ERC721.sol\";\nimport \"@openzeppelin/contracts/token/ERC721/extensions/ERC721URIStorage.sol\";\nimport \"@openzeppelin/contracts/token/ERC721/IERC721.sol\";\nimport \"@openzeppelin/contracts/access/Ownable.sol\";\nimport \"@openzeppelin/contracts/utils/Counters.sol\";\n\ncontract NFTJail is ERC721, ERC721URIStorage, Ownable {\n\tusing Counters for Counters.Counter;\n\n\t// Starts counting at 1 instead of 0\n\tCounters.Counter public tokenIdCounter;\n\n\t// Track minted tokens by parent address and id\n\tmapping (bytes32 => bool) public parentTokenTracker;\n\n\tconstructor() ERC721(\"NFTJail\", \"NFTJAIL\") {}\n\n\tfunction _baseURI() internal pure override returns(string memory) {\n\t\treturn \"ipfs://\";\n\t}\n\n\t/**\n\t * Go to jail!\n\t * Mints an NFT based an existing one from a different contract.\n\t */\n\tfunction mint(address parentContractAddress, uint256 parentTokenId, string calldata _tokenURI) external payable {\n\t\tbytes32 parentHash = keccak256(abi.encode(parentContractAddress, parentTokenId));\n\t\t// Each parent address/token can only be minted once\n\t\trequire(!parentTokenTracker[parentHash], \"Parent token already exists\");\n\n\t\t// Caller must own the parent token\n\t\trequire(msg.sender == IERC721(parentContractAddress).ownerOf(parentTokenId), \"Caller does not own the parent token\");\n\n\t\t// Keep track of parent tokens to prevent duplicates\n\t\tparentTokenTracker[parentHash] = true;\n\n\t\ttokenIdCounter.increment();\n\t\t_safeMint(msg.sender, tokenIdCounter.current());\n\t\t_setTokenURI(tokenIdCounter.current(), _tokenURI);\n\t}\n\n\t/**\n\t * Allow funds to be withdrawn by the owner\n\t */\n\tfunction withdrawAll() public onlyOwner {\n        (bool success,) = payable(msg.sender).call{value : address(this).balance}(\"\");\n        require(success, \"Withdrawal failed\");\n    }\n\n\t/**\n\t * Receive function in case eth gets sent to the contract\n\t */\n\treceive() external payable {}\n\n\t// Override functions\n\tfunction _burn(uint256 tokenId) internal override(ERC721, ERC721URIStorage) {\n        super._burn(tokenId);\n    }\n\n    function tokenURI(uint256 tokenId)\n        public\n        view\n        override(ERC721, ERC721URIStorage)\n        returns (string memory)\n    {\n        return super.tokenURI(tokenId);\n    }\n}\n",
  "sourcePath": "/Users/trav/code/web3/neon-nacho-labs/contracts/NFTJail.sol",
  "compiler": {
    "name": "solc",
    "version": "0.8.15+commit.e14f2714.Emscripten.clang"
  },
  "schemaVersion": "3.4.8",
  "updatedAt": "2022-07-25T19:46:26.734Z",
  "networkType": "ethereum",
  "devdoc": {
    "kind": "dev",
    "methods": {
      "approve(address,uint256)": {
        "details": "See {IERC721-approve}."
      },
      "balanceOf(address)": {
        "details": "See {IERC721-balanceOf}."
      },
      "getApproved(uint256)": {
        "details": "See {IERC721-getApproved}."
      },
      "isApprovedForAll(address,address)": {
        "details": "See {IERC721-isApprovedForAll}."
      },
      "name()": {
        "details": "See {IERC721Metadata-name}."
      },
      "owner()": {
        "details": "Returns the address of the current owner."
      },
      "ownerOf(uint256)": {
        "details": "See {IERC721-ownerOf}."
      },
      "renounceOwnership()": {
        "details": "Leaves the contract without owner. It will not be possible to call `onlyOwner` functions anymore. Can only be called by the current owner. NOTE: Renouncing ownership will leave the contract without an owner, thereby removing any functionality that is only available to the owner."
      },
      "safeTransferFrom(address,address,uint256)": {
        "details": "See {IERC721-safeTransferFrom}."
      },
      "safeTransferFrom(address,address,uint256,bytes)": {
        "details": "See {IERC721-safeTransferFrom}."
      },
      "setApprovalForAll(address,bool)": {
        "details": "See {IERC721-setApprovalForAll}."
      },
      "supportsInterface(bytes4)": {
        "details": "See {IERC165-supportsInterface}."
      },
      "symbol()": {
        "details": "See {IERC721Metadata-symbol}."
      },
      "transferFrom(address,address,uint256)": {
        "details": "See {IERC721-transferFrom}."
      },
      "transferOwnership(address)": {
        "details": "Transfers ownership of the contract to a new account (`newOwner`). Can only be called by the current owner."
      }
    },
    "version": 1
  },
  "userdoc": {
    "kind": "user",
    "methods": {
      "mint(address,uint256,string)": {
        "notice": "Go to jail! Mints an NFT based an existing one from a different contract."
      },
      "withdrawAll()": {
        "notice": "Allow funds to be withdrawn by the owner"
      }
    },
    "version": 1
  }
}