{
  "contractName": "NFTJail",
  "abi": [
    {
      "inputs": [],
      "stateMutability": "nonpayable",
      "type": "constructor"
    },
    {
      "anonymous": false,
      "inputs": [
        {
          "indexed": true,
          "internalType": "address",
          "name": "owner",
          "type": "address"
        },
        {
          "indexed": true,
          "internalType": "address",
          "name": "approved",
          "type": "address"
        },
        {
          "indexed": true,
          "internalType": "uint256",
          "name": "tokenId",
          "type": "uint256"
        }
      ],
      "name": "Approval",
      "type": "event"
    },
    {
      "anonymous": false,
      "inputs": [
        {
          "indexed": true,
          "internalType": "address",
          "name": "owner",
          "type": "address"
        },
        {
          "indexed": true,
          "internalType": "address",
          "name": "operator",
          "type": "address"
        },
        {
          "indexed": false,
          "internalType": "bool",
          "name": "approved",
          "type": "bool"
        }
      ],
      "name": "ApprovalForAll",
      "type": "event"
    },
    {
      "anonymous": false,
      "inputs": [
        {
          "indexed": true,
          "internalType": "address",
          "name": "previousOwner",
          "type": "address"
        },
        {
          "indexed": true,
          "internalType": "address",
          "name": "newOwner",
          "type": "address"
        }
      ],
      "name": "OwnershipTransferred",
      "type": "event"
    },
    {
      "anonymous": false,
      "inputs": [
        {
          "indexed": true,
          "internalType": "address",
          "name": "from",
          "type": "address"
        },
        {
          "indexed": true,
          "internalType": "address",
          "name": "to",
          "type": "address"
        },
        {
          "indexed": true,
          "internalType": "uint256",
          "name": "tokenId",
          "type": "uint256"
        }
      ],
      "name": "Transfer",
      "type": "event"
    },
    {
      "inputs": [
        {
          "internalType": "address",
          "name": "to",
          "type": "address"
        },
        {
          "internalType": "uint256",
          "name": "tokenId",
          "type": "uint256"
        }
      ],
      "name": "approve",
      "outputs": [],
      "stateMutability": "nonpayable",
      "type": "function"
    },
    {
      "inputs": [
        {
          "internalType": "address",
          "name": "owner",
          "type": "address"
        }
      ],
      "name": "balanceOf",
      "outputs": [
        {
          "internalType": "uint256",
          "name": "",
          "type": "uint256"
        }
      ],
      "stateMutability": "view",
      "type": "function",
      "constant": true
    },
    {
      "inputs": [
        {
          "internalType": "uint256",
          "name": "tokenId",
          "type": "uint256"
        }
      ],
      "name": "getApproved",
      "outputs": [
        {
          "internalType": "address",
          "name": "",
          "type": "address"
        }
      ],
      "stateMutability": "view",
      "type": "function",
      "constant": true
    },
    {
      "inputs": [
        {
          "internalType": "address",
          "name": "owner",
          "type": "address"
        },
        {
          "internalType": "address",
          "name": "operator",
          "type": "address"
        }
      ],
      "name": "isApprovedForAll",
      "outputs": [
        {
          "internalType": "bool",
          "name": "",
          "type": "bool"
        }
      ],
      "stateMutability": "view",
      "type": "function",
      "constant": true
    },
    {
      "inputs": [],
      "name": "name",
      "outputs": [
        {
          "internalType": "string",
          "name": "",
          "type": "string"
        }
      ],
      "stateMutability": "view",
      "type": "function",
      "constant": true
    },
    {
      "inputs": [],
      "name": "owner",
      "outputs": [
        {
          "internalType": "address",
          "name": "",
          "type": "address"
        }
      ],
      "stateMutability": "view",
      "type": "function",
      "constant": true
    },
    {
      "inputs": [
        {
          "internalType": "uint256",
          "name": "tokenId",
          "type": "uint256"
        }
      ],
      "name": "ownerOf",
      "outputs": [
        {
          "internalType": "address",
          "name": "",
          "type": "address"
        }
      ],
      "stateMutability": "view",
      "type": "function",
      "constant": true
    },
    {
      "inputs": [
        {
          "internalType": "bytes32",
          "name": "",
          "type": "bytes32"
        }
      ],
      "name": "parentTokenTracker",
      "outputs": [
        {
          "internalType": "bool",
          "name": "",
          "type": "bool"
        }
      ],
      "stateMutability": "view",
      "type": "function",
      "constant": true
    },
    {
      "inputs": [],
      "name": "renounceOwnership",
      "outputs": [],
      "stateMutability": "nonpayable",
      "type": "function"
    },
    {
      "inputs": [
        {
          "internalType": "address",
          "name": "from",
          "type": "address"
        },
        {
          "internalType": "address",
          "name": "to",
          "type": "address"
        },
        {
          "internalType": "uint256",
          "name": "tokenId",
          "type": "uint256"
        }
      ],
      "name": "safeTransferFrom",
      "outputs": [],
      "stateMutability": "nonpayable",
      "type": "function"
    },
    {
      "inputs": [
        {
          "internalType": "address",
          "name": "from",
          "type": "address"
        },
        {
          "internalType": "address",
          "name": "to",
          "type": "address"
        },
        {
          "internalType": "uint256",
          "name": "tokenId",
          "type": "uint256"
        },
        {
          "internalType": "bytes",
          "name": "_data",
          "type": "bytes"
        }
      ],
      "name": "safeTransferFrom",
      "outputs": [],
      "stateMutability": "nonpayable",
      "type": "function"
    },
    {
      "inputs": [
        {
          "internalType": "address",
          "name": "operator",
          "type": "address"
        },
        {
          "internalType": "bool",
          "name": "approved",
          "type": "bool"
        }
      ],
      "name": "setApprovalForAll",
      "outputs": [],
      "stateMutability": "nonpayable",
      "type": "function"
    },
    {
      "inputs": [
        {
          "internalType": "bytes4",
          "name": "interfaceId",
          "type": "bytes4"
        }
      ],
      "name": "supportsInterface",
      "outputs": [
        {
          "internalType": "bool",
          "name": "",
          "type": "bool"
        }
      ],
      "stateMutability": "view",
      "type": "function",
      "constant": true
    },
    {
      "inputs": [],
      "name": "symbol",
      "outputs": [
        {
          "internalType": "string",
          "name": "",
          "type": "string"
        }
      ],
      "stateMutability": "view",
      "type": "function",
      "constant": true
    },
    {
      "inputs": [],
      "name": "tokenIdCounter",
      "outputs": [
        {
          "internalType": "uint256",
          "name": "_value",
          "type": "uint256"
        }
      ],
      "stateMutability": "view",
      "type": "function",
      "constant": true
    },
    {
      "inputs": [
        {
          "internalType": "address",
          "name": "from",
          "type": "address"
        },
        {
          "internalType": "address",
          "name": "to",
          "type": "address"
        },
        {
          "internalType": "uint256",
          "name": "tokenId",
          "type": "uint256"
        }
      ],
      "name": "transferFrom",
      "outputs": [],
      "stateMutability": "nonpayable",
      "type": "function"
    },
    {
      "inputs": [
        {
          "internalType": "address",
          "name": "newOwner",
          "type": "address"
        }
      ],
      "name": "transferOwnership",
      "outputs": [],
      "stateMutability": "nonpayable",
      "type": "function"
    },
    {
      "stateMutability": "payable",
      "type": "receive",
      "payable": true
    },
    {
      "inputs": [
        {
          "internalType": "address",
          "name": "parentContractAddress",
          "type": "address"
        },
        {
          "internalType": "uint256",
          "name": "parentTokenId",
          "type": "uint256"
        },
        {
          "internalType": "string",
          "name": "_tokenURI",
          "type": "string"
        }
      ],
      "name": "mint",
      "outputs": [],
      "stateMutability": "payable",
      "type": "function",
      "payable": true
    },
    {
      "inputs": [],
      "name": "withdrawAll",
      "outputs": [],
      "stateMutability": "nonpayable",
      "type": "function"
    },
    {
      "inputs": [
        {
          "internalType": "uint256",
          "name": "tokenId",
          "type": "uint256"
        }
      ],
      "name": "tokenURI",
      "outputs": [
        {
          "internalType": "string",
          "name": "",
          "type": "string"
        }
      ],
      "stateMutability": "view",
      "type": "function",
      "constant": true
    }
  ],
  "bytecode": "0x60806040523480156200001157600080fd5b506040518060400160405280600781526020017f4e46544a61696c000000000000000000000000000000000000000000000000008152506040518060400160405280600781526020017f4e46544a41494c0000000000000000000000000000000000000000000000000081525081600090816200008f919062000412565b508060019081620000a1919062000412565b505050620000c4620000b8620000ca60201b60201c565b620000d260201b60201c565b620004f9565b600033905090565b6000600760009054906101000a900473ffffffffffffffffffffffffffffffffffffffff16905081600760006101000a81548173ffffffffffffffffffffffffffffffffffffffff021916908373ffffffffffffffffffffffffffffffffffffffff1602179055508173ffffffffffffffffffffffffffffffffffffffff168173ffffffffffffffffffffffffffffffffffffffff167f8be0079c531659141344cd1fd0a4f28419497f9722a3daafe3b4186f6b6457e060405160405180910390a35050565b600081519050919050565b7f4e487b7100000000000000000000000000000000000000000000000000000000600052604160045260246000fd5b7f4e487b7100000000000000000000000000000000000000000000000000000000600052602260045260246000fd5b600060028204905060018216806200021a57607f821691505b60208210810362000230576200022f620001d2565b5b50919050565b60008190508160005260206000209050919050565b60006020601f8301049050919050565b600082821b905092915050565b6000600883026200029a7fffffffffffffffffffffffffffffffffffffffffffffffffffffffffffffffff826200025b565b620002a686836200025b565b95508019841693508086168417925050509392505050565b6000819050919050565b6000819050919050565b6000620002f3620002ed620002e784620002be565b620002c8565b620002be565b9050919050565b6000819050919050565b6200030f83620002d2565b620003276200031e82620002fa565b84845462000268565b825550505050565b600090565b6200033e6200032f565b6200034b81848462000304565b505050565b5b8181101562000373576200036760008262000334565b60018101905062000351565b5050565b601f821115620003c2576200038c8162000236565b62000397846200024b565b81016020851015620003a7578190505b620003bf620003b6856200024b565b83018262000350565b50505b505050565b600082821c905092915050565b6000620003e760001984600802620003c7565b1980831691505092915050565b6000620004028383620003d4565b9150826002028217905092915050565b6200041d8262000198565b67ffffffffffffffff811115620004395762000438620001a3565b5b62000445825462000201565b6200045282828562000377565b600060209050601f8311600181146200048a576000841562000475578287015190505b620004818582620003f4565b865550620004f1565b601f1984166200049a8662000236565b60005b82811015620004c4578489015182556001820191506020850194506020810190506200049d565b86831015620004e45784890151620004e0601f891682620003d4565b8355505b6001600288020188555050505b505050505050565b6138cd80620005096000396000f3fe6080604052600436106101235760003560e01c8063853828b6116100a0578063b88d4fde11610064578063b88d4fde146103de578063c87b56dd14610407578063d3fc986414610444578063e985e9c514610460578063f2fde38b1461049d5761012a565b8063853828b61461031d5780638da5cb5b1461033457806395d89b411461035f57806398bdf6f51461038a578063a22cb465146103b55761012a565b80632c48cb0c116100e75780632c48cb0c1461022657806342842e0e146102635780636352211e1461028c57806370a08231146102c9578063715018a6146103065761012a565b806301ffc9a71461012f57806306fdde031461016c578063081812fc14610197578063095ea7b3146101d457806323b872dd146101fd5761012a565b3661012a57005b600080fd5b34801561013b57600080fd5b506101566004803603810190610151919061208b565b6104c6565b60405161016391906120d3565b60405180910390f35b34801561017857600080fd5b506101816105a8565b60405161018e919061217e565b60405180910390f35b3480156101a357600080fd5b506101be60048036038101906101b991906121d6565b61063a565b6040516101cb9190612244565b60405180910390f35b3480156101e057600080fd5b506101fb60048036038101906101f6919061228b565b6106bf565b005b34801561020957600080fd5b50610224600480360381019061021f91906122cb565b6107d6565b005b34801561023257600080fd5b5061024d60048036038101906102489190612354565b610836565b60405161025a91906120d3565b60405180910390f35b34801561026f57600080fd5b5061028a600480360381019061028591906122cb565b610856565b005b34801561029857600080fd5b506102b360048036038101906102ae91906121d6565b610876565b6040516102c09190612244565b60405180910390f35b3480156102d557600080fd5b506102f060048036038101906102eb9190612381565b610927565b6040516102fd91906123bd565b60405180910390f35b34801561031257600080fd5b5061031b6109de565b005b34801561032957600080fd5b50610332610a66565b005b34801561034057600080fd5b50610349610b91565b6040516103569190612244565b60405180910390f35b34801561036b57600080fd5b50610374610bbb565b604051610381919061217e565b60405180910390f35b34801561039657600080fd5b5061039f610c4d565b6040516103ac91906123bd565b60405180910390f35b3480156103c157600080fd5b506103dc60048036038101906103d79190612404565b610c59565b005b3480156103ea57600080fd5b5061040560048036038101906104009190612579565b610c6f565b005b34801561041357600080fd5b5061042e600480360381019061042991906121d6565b610cd1565b60405161043b919061217e565b60405180910390f35b61045e6004803603810190610459919061265c565b610ce3565b005b34801561046c57600080fd5b50610487600480360381019061048291906126d0565b610eff565b60405161049491906120d3565b60405180910390f35b3480156104a957600080fd5b506104c460048036038101906104bf9190612381565b610f93565b005b60007f80ac58cd000000000000000000000000000000000000000000000000000000007bffffffffffffffffffffffffffffffffffffffffffffffffffffffff1916827bffffffffffffffffffffffffffffffffffffffffffffffffffffffff1916148061059157507f5b5e139f000000000000000000000000000000000000000000000000000000007bffffffffffffffffffffffffffffffffffffffffffffffffffffffff1916827bffffffffffffffffffffffffffffffffffffffffffffffffffffffff1916145b806105a157506105a08261108a565b5b9050919050565b6060600080546105b79061273f565b80601f01602080910402602001604051908101604052809291908181526020018280546105e39061273f565b80156106305780601f1061060557610100808354040283529160200191610630565b820191906000526020600020905b81548152906001019060200180831161061357829003601f168201915b5050505050905090565b6000610645826110f4565b610684576040517f08c379a000000000000000000000000000000000000000000000000000000000815260040161067b906127e2565b60405180910390fd5b6004600083815260200190815260200160002060009054906101000a900473ffffffffffffffffffffffffffffffffffffffff169050919050565b60006106ca82610876565b90508073ffffffffffffffffffffffffffffffffffffffff168373ffffffffffffffffffffffffffffffffffffffff160361073a576040517f08c379a000000000000000000000000000000000000000000000000000000000815260040161073190612874565b60405180910390fd5b8073ffffffffffffffffffffffffffffffffffffffff16610759611160565b73ffffffffffffffffffffffffffffffffffffffff161480610788575061078781610782611160565b610eff565b5b6107c7576040517f08c379a00000000000000000000000000000000000000000000000000000000081526004016107be90612906565b60405180910390fd5b6107d18383611168565b505050565b6107e76107e1611160565b82611221565b610826576040517f08c379a000000000000000000000000000000000000000000000000000000000815260040161081d90612998565b60405180910390fd5b6108318383836112ff565b505050565b60096020528060005260406000206000915054906101000a900460ff1681565b61087183838360405180602001604052806000815250610c6f565b505050565b6000806002600084815260200190815260200160002060009054906101000a900473ffffffffffffffffffffffffffffffffffffffff169050600073ffffffffffffffffffffffffffffffffffffffff168173ffffffffffffffffffffffffffffffffffffffff160361091e576040517f08c379a000000000000000000000000000000000000000000000000000000000815260040161091590612a2a565b60405180910390fd5b80915050919050565b60008073ffffffffffffffffffffffffffffffffffffffff168273ffffffffffffffffffffffffffffffffffffffff1603610997576040517f08c379a000000000000000000000000000000000000000000000000000000000815260040161098e90612abc565b60405180910390fd5b600360008373ffffffffffffffffffffffffffffffffffffffff1673ffffffffffffffffffffffffffffffffffffffff168152602001908152602001600020549050919050565b6109e6611160565b73ffffffffffffffffffffffffffffffffffffffff16610a04610b91565b73ffffffffffffffffffffffffffffffffffffffff1614610a5a576040517f08c379a0000000000000000000000000000000000000000000000000000000008152600401610a5190612b28565b60405180910390fd5b610a646000611565565b565b610a6e611160565b73ffffffffffffffffffffffffffffffffffffffff16610a8c610b91565b73ffffffffffffffffffffffffffffffffffffffff1614610ae2576040517f08c379a0000000000000000000000000000000000000000000000000000000008152600401610ad990612b28565b60405180910390fd5b60003373ffffffffffffffffffffffffffffffffffffffff1647604051610b0890612b79565b60006040518083038185875af1925050503d8060008114610b45576040519150601f19603f3d011682016040523d82523d6000602084013e610b4a565b606091505b5050905080610b8e576040517f08c379a0000000000000000000000000000000000000000000000000000000008152600401610b8590612bda565b60405180910390fd5b50565b6000600760009054906101000a900473ffffffffffffffffffffffffffffffffffffffff16905090565b606060018054610bca9061273f565b80601f0160208091040260200160405190810160405280929190818152602001828054610bf69061273f565b8015610c435780601f10610c1857610100808354040283529160200191610c43565b820191906000526020600020905b815481529060010190602001808311610c2657829003601f168201915b5050505050905090565b60088060000154905081565b610c6b610c64611160565b838361162b565b5050565b610c80610c7a611160565b83611221565b610cbf576040517f08c379a0000000000000000000000000000000000000000000000000000000008152600401610cb690612998565b60405180910390fd5b610ccb84848484611797565b50505050565b6060610cdc826117f3565b9050919050565b60008484604051602001610cf8929190612bfa565b6040516020818303038152906040528051906020012090506009600082815260200190815260200160002060009054906101000a900460ff1615610d71576040517f08c379a0000000000000000000000000000000000000000000000000000000008152600401610d6890612c6f565b60405180910390fd5b8473ffffffffffffffffffffffffffffffffffffffff16636352211e856040518263ffffffff1660e01b8152600401610daa91906123bd565b602060405180830381865afa158015610dc7573d6000803e3d6000fd5b505050506040513d601f19601f82011682018060405250810190610deb9190612ca4565b73ffffffffffffffffffffffffffffffffffffffff163373ffffffffffffffffffffffffffffffffffffffff1614610e58576040517f08c379a0000000000000000000000000000000000000000000000000000000008152600401610e4f90612d43565b60405180910390fd5b60016009600083815260200190815260200160002060006101000a81548160ff021916908315150217905550610e8e6008611944565b610ea133610e9c600861195a565b611968565b610ef8610eae600861195a565b84848080601f016020809104026020016040519081016040528093929190818152602001838380828437600081840152601f19601f82011690508083019250505050505050611986565b5050505050565b6000600560008473ffffffffffffffffffffffffffffffffffffffff1673ffffffffffffffffffffffffffffffffffffffff16815260200190815260200160002060008373ffffffffffffffffffffffffffffffffffffffff1673ffffffffffffffffffffffffffffffffffffffff16815260200190815260200160002060009054906101000a900460ff16905092915050565b610f9b611160565b73ffffffffffffffffffffffffffffffffffffffff16610fb9610b91565b73ffffffffffffffffffffffffffffffffffffffff161461100f576040517f08c379a000000000000000000000000000000000000000000000000000000000815260040161100690612b28565b60405180910390fd5b600073ffffffffffffffffffffffffffffffffffffffff168173ffffffffffffffffffffffffffffffffffffffff160361107e576040517f08c379a000000000000000000000000000000000000000000000000000000000815260040161107590612dd5565b60405180910390fd5b61108781611565565b50565b60007f01ffc9a7000000000000000000000000000000000000000000000000000000007bffffffffffffffffffffffffffffffffffffffffffffffffffffffff1916827bffffffffffffffffffffffffffffffffffffffffffffffffffffffff1916149050919050565b60008073ffffffffffffffffffffffffffffffffffffffff166002600084815260200190815260200160002060009054906101000a900473ffffffffffffffffffffffffffffffffffffffff1673ffffffffffffffffffffffffffffffffffffffff1614159050919050565b600033905090565b816004600083815260200190815260200160002060006101000a81548173ffffffffffffffffffffffffffffffffffffffff021916908373ffffffffffffffffffffffffffffffffffffffff160217905550808273ffffffffffffffffffffffffffffffffffffffff166111db83610876565b73ffffffffffffffffffffffffffffffffffffffff167f8c5be1e5ebec7d5bd14f71427d1e84f3dd0314c0f7b2291e5b200ac8c7c3b92560405160405180910390a45050565b600061122c826110f4565b61126b576040517f08c379a000000000000000000000000000000000000000000000000000000000815260040161126290612e67565b60405180910390fd5b600061127683610876565b90508073ffffffffffffffffffffffffffffffffffffffff168473ffffffffffffffffffffffffffffffffffffffff1614806112b857506112b78185610eff565b5b806112f657508373ffffffffffffffffffffffffffffffffffffffff166112de8461063a565b73ffffffffffffffffffffffffffffffffffffffff16145b91505092915050565b8273ffffffffffffffffffffffffffffffffffffffff1661131f82610876565b73ffffffffffffffffffffffffffffffffffffffff1614611375576040517f08c379a000000000000000000000000000000000000000000000000000000000815260040161136c90612ef9565b60405180910390fd5b600073ffffffffffffffffffffffffffffffffffffffff168273ffffffffffffffffffffffffffffffffffffffff16036113e4576040517f08c379a00000000000000000000000000000000000000000000000000000000081526004016113db90612f8b565b60405180910390fd5b6113ef8383836119f3565b6113fa600082611168565b6001600360008573ffffffffffffffffffffffffffffffffffffffff1673ffffffffffffffffffffffffffffffffffffffff168152602001908152602001600020600082825461144a9190612fda565b925050819055506001600360008473ffffffffffffffffffffffffffffffffffffffff1673ffffffffffffffffffffffffffffffffffffffff16815260200190815260200160002060008282546114a1919061300e565b92505081905550816002600083815260200190815260200160002060006101000a81548173ffffffffffffffffffffffffffffffffffffffff021916908373ffffffffffffffffffffffffffffffffffffffff160217905550808273ffffffffffffffffffffffffffffffffffffffff168473ffffffffffffffffffffffffffffffffffffffff167fddf252ad1be2c89b69c2b068fc378daa952ba7f163c4a11628f55a4df523b3ef60405160405180910390a46115608383836119f8565b505050565b6000600760009054906101000a900473ffffffffffffffffffffffffffffffffffffffff16905081600760006101000a81548173ffffffffffffffffffffffffffffffffffffffff021916908373ffffffffffffffffffffffffffffffffffffffff1602179055508173ffffffffffffffffffffffffffffffffffffffff168173ffffffffffffffffffffffffffffffffffffffff167f8be0079c531659141344cd1fd0a4f28419497f9722a3daafe3b4186f6b6457e060405160405180910390a35050565b8173ffffffffffffffffffffffffffffffffffffffff168373ffffffffffffffffffffffffffffffffffffffff1603611699576040517f08c379a00000000000000000000000000000000000000000000000000000000081526004016116909061308e565b60405180910390fd5b80600560008573ffffffffffffffffffffffffffffffffffffffff1673ffffffffffffffffffffffffffffffffffffffff16815260200190815260200160002060008473ffffffffffffffffffffffffffffffffffffffff1673ffffffffffffffffffffffffffffffffffffffff16815260200190815260200160002060006101000a81548160ff0219169083151502179055508173ffffffffffffffffffffffffffffffffffffffff168373ffffffffffffffffffffffffffffffffffffffff167f17307eab39ab6107e8899845ad3d59bd9653f200f220920489ca2b5937696c318360405161178a91906120d3565b60405180910390a3505050565b6117a28484846112ff565b6117ae848484846119fd565b6117ed576040517f08c379a00000000000000000000000000000000000000000000000000000000081526004016117e490613120565b60405180910390fd5b50505050565b60606117fe826110f4565b61183d576040517f08c379a0000000000000000000000000000000000000000000000000000000008152600401611834906131b2565b60405180910390fd5b600060066000848152602001908152602001600020805461185d9061273f565b80601f01602080910402602001604051908101604052809291908181526020018280546118899061273f565b80156118d65780601f106118ab576101008083540402835291602001916118d6565b820191906000526020600020905b8154815290600101906020018083116118b957829003601f168201915b5050505050905060006118e7611b84565b905060008151036118fc57819250505061193f565b60008251111561193157808260405160200161191992919061320e565b6040516020818303038152906040529250505061193f565b61193a84611bc1565b925050505b919050565b6001816000016000828254019250508190555050565b600081600001549050919050565b611982828260405180602001604052806000815250611c68565b5050565b61198f826110f4565b6119ce576040517f08c379a00000000000000000000000000000000000000000000000000000000081526004016119c5906132a4565b60405180910390fd5b806006600084815260200190815260200160002090816119ee9190613470565b505050565b505050565b505050565b6000611a1e8473ffffffffffffffffffffffffffffffffffffffff16611cc3565b15611b77578373ffffffffffffffffffffffffffffffffffffffff1663150b7a02611a47611160565b8786866040518563ffffffff1660e01b8152600401611a699493929190613597565b6020604051808303816000875af1925050508015611aa557506040513d601f19601f82011682018060405250810190611aa291906135f8565b60015b611b27573d8060008114611ad5576040519150601f19603f3d011682016040523d82523d6000602084013e611ada565b606091505b506000815103611b1f576040517f08c379a0000000000000000000000000000000000000000000000000000000008152600401611b1690613120565b60405180910390fd5b805181602001fd5b63150b7a0260e01b7bffffffffffffffffffffffffffffffffffffffffffffffffffffffff1916817bffffffffffffffffffffffffffffffffffffffffffffffffffffffff191614915050611b7c565b600190505b949350505050565b60606040518060400160405280600781526020017f697066733a2f2f00000000000000000000000000000000000000000000000000815250905090565b6060611bcc826110f4565b611c0b576040517f08c379a0000000000000000000000000000000000000000000000000000000008152600401611c0290613697565b60405180910390fd5b6000611c15611b84565b90506000815111611c355760405180602001604052806000815250611c60565b80611c3f84611ce6565b604051602001611c5092919061320e565b6040516020818303038152906040525b915050919050565b611c728383611e46565b611c7f60008484846119fd565b611cbe576040517f08c379a0000000000000000000000000000000000000000000000000000000008152600401611cb590613120565b60405180910390fd5b505050565b6000808273ffffffffffffffffffffffffffffffffffffffff163b119050919050565b606060008203611d2d576040518060400160405280600181526020017f30000000000000000000000000000000000000000000000000000000000000008152509050611e41565b600082905060005b60008214611d5f578080611d48906136b7565b915050600a82611d58919061372e565b9150611d35565b60008167ffffffffffffffff811115611d7b57611d7a61244e565b5b6040519080825280601f01601f191660200182016040528015611dad5781602001600182028036833780820191505090505b5090505b60008514611e3a57600182611dc69190612fda565b9150600a85611dd5919061375f565b6030611de1919061300e565b60f81b818381518110611df757611df6613790565b5b60200101907effffffffffffffffffffffffffffffffffffffffffffffffffffffffffffff1916908160001a905350600a85611e33919061372e565b9450611db1565b8093505050505b919050565b600073ffffffffffffffffffffffffffffffffffffffff168273ffffffffffffffffffffffffffffffffffffffff1603611eb5576040517f08c379a0000000000000000000000000000000000000000000000000000000008152600401611eac9061380b565b60405180910390fd5b611ebe816110f4565b15611efe576040517f08c379a0000000000000000000000000000000000000000000000000000000008152600401611ef590613877565b60405180910390fd5b611f0a600083836119f3565b6001600360008473ffffffffffffffffffffffffffffffffffffffff1673ffffffffffffffffffffffffffffffffffffffff1681526020019081526020016000206000828254611f5a919061300e565b92505081905550816002600083815260200190815260200160002060006101000a81548173ffffffffffffffffffffffffffffffffffffffff021916908373ffffffffffffffffffffffffffffffffffffffff160217905550808273ffffffffffffffffffffffffffffffffffffffff16600073ffffffffffffffffffffffffffffffffffffffff167fddf252ad1be2c89b69c2b068fc378daa952ba7f163c4a11628f55a4df523b3ef60405160405180910390a461201b600083836119f8565b5050565b6000604051905090565b600080fd5b600080fd5b60007fffffffff0000000000000000000000000000000000000000000000000000000082169050919050565b61206881612033565b811461207357600080fd5b50565b6000813590506120858161205f565b92915050565b6000602082840312156120a1576120a0612029565b5b60006120af84828501612076565b91505092915050565b60008115159050919050565b6120cd816120b8565b82525050565b60006020820190506120e860008301846120c4565b92915050565b600081519050919050565b600082825260208201905092915050565b60005b8381101561212857808201518184015260208101905061210d565b60008484015250505050565b6000601f19601f8301169050919050565b6000612150826120ee565b61215a81856120f9565b935061216a81856020860161210a565b61217381612134565b840191505092915050565b600060208201905081810360008301526121988184612145565b905092915050565b6000819050919050565b6121b3816121a0565b81146121be57600080fd5b50565b6000813590506121d0816121aa565b92915050565b6000602082840312156121ec576121eb612029565b5b60006121fa848285016121c1565b91505092915050565b600073ffffffffffffffffffffffffffffffffffffffff82169050919050565b600061222e82612203565b9050919050565b61223e81612223565b82525050565b60006020820190506122596000830184612235565b92915050565b61226881612223565b811461227357600080fd5b50565b6000813590506122858161225f565b92915050565b600080604083850312156122a2576122a1612029565b5b60006122b085828601612276565b92505060206122c1858286016121c1565b9150509250929050565b6000806000606084860312156122e4576122e3612029565b5b60006122f286828701612276565b935050602061230386828701612276565b9250506040612314868287016121c1565b9150509250925092565b6000819050919050565b6123318161231e565b811461233c57600080fd5b50565b60008135905061234e81612328565b92915050565b60006020828403121561236a57612369612029565b5b60006123788482850161233f565b91505092915050565b60006020828403121561239757612396612029565b5b60006123a584828501612276565b91505092915050565b6123b7816121a0565b82525050565b60006020820190506123d260008301846123ae565b92915050565b6123e1816120b8565b81146123ec57600080fd5b50565b6000813590506123fe816123d8565b92915050565b6000806040838503121561241b5761241a612029565b5b600061242985828601612276565b925050602061243a858286016123ef565b9150509250929050565b600080fd5b600080fd5b7f4e487b7100000000000000000000000000000000000000000000000000000000600052604160045260246000fd5b61248682612134565b810181811067ffffffffffffffff821117156124a5576124a461244e565b5b80604052505050565b60006124b861201f565b90506124c4828261247d565b919050565b600067ffffffffffffffff8211156124e4576124e361244e565b5b6124ed82612134565b9050602081019050919050565b82818337600083830152505050565b600061251c612517846124c9565b6124ae565b90508281526020810184848401111561253857612537612449565b5b6125438482856124fa565b509392505050565b600082601f8301126125605761255f612444565b5b8135612570848260208601612509565b91505092915050565b6000806000806080858703121561259357612592612029565b5b60006125a187828801612276565b94505060206125b287828801612276565b93505060406125c3878288016121c1565b925050606085013567ffffffffffffffff8111156125e4576125e361202e565b5b6125f08782880161254b565b91505092959194509250565b600080fd5b600080fd5b60008083601f84011261261c5761261b612444565b5b8235905067ffffffffffffffff811115612639576126386125fc565b5b60208301915083600182028301111561265557612654612601565b5b9250929050565b6000806000806060858703121561267657612675612029565b5b600061268487828801612276565b9450506020612695878288016121c1565b935050604085013567ffffffffffffffff8111156126b6576126b561202e565b5b6126c287828801612606565b925092505092959194509250565b600080604083850312156126e7576126e6612029565b5b60006126f585828601612276565b925050602061270685828601612276565b9150509250929050565b7f4e487b7100000000000000000000000000000000000000000000000000000000600052602260045260246000fd5b6000600282049050600182168061275757607f821691505b60208210810361276a57612769612710565b5b50919050565b7f4552433732313a20617070726f76656420717565727920666f72206e6f6e657860008201527f697374656e7420746f6b656e0000000000000000000000000000000000000000602082015250565b60006127cc602c836120f9565b91506127d782612770565b604082019050919050565b600060208201905081810360008301526127fb816127bf565b9050919050565b7f4552433732313a20617070726f76616c20746f2063757272656e74206f776e6560008201527f7200000000000000000000000000000000000000000000000000000000000000602082015250565b600061285e6021836120f9565b915061286982612802565b604082019050919050565b6000602082019050818103600083015261288d81612851565b9050919050565b7f4552433732313a20617070726f76652063616c6c6572206973206e6f74206f7760008201527f6e6572206e6f7220617070726f76656420666f7220616c6c0000000000000000602082015250565b60006128f06038836120f9565b91506128fb82612894565b604082019050919050565b6000602082019050818103600083015261291f816128e3565b9050919050565b7f4552433732313a207472616e736665722063616c6c6572206973206e6f74206f60008201527f776e6572206e6f7220617070726f766564000000000000000000000000000000602082015250565b60006129826031836120f9565b915061298d82612926565b604082019050919050565b600060208201905081810360008301526129b181612975565b9050919050565b7f4552433732313a206f776e657220717565727920666f72206e6f6e657869737460008201527f656e7420746f6b656e0000000000000000000000000000000000000000000000602082015250565b6000612a146029836120f9565b9150612a1f826129b8565b604082019050919050565b60006020820190508181036000830152612a4381612a07565b9050919050565b7f4552433732313a2062616c616e636520717565727920666f7220746865207a6560008201527f726f206164647265737300000000000000000000000000000000000000000000602082015250565b6000612aa6602a836120f9565b9150612ab182612a4a565b604082019050919050565b60006020820190508181036000830152612ad581612a99565b9050919050565b7f4f776e61626c653a2063616c6c6572206973206e6f7420746865206f776e6572600082015250565b6000612b126020836120f9565b9150612b1d82612adc565b602082019050919050565b60006020820190508181036000830152612b4181612b05565b9050919050565b600081905092915050565b50565b6000612b63600083612b48565b9150612b6e82612b53565b600082019050919050565b6000612b8482612b56565b9150819050919050565b7f5769746864726177616c206661696c6564000000000000000000000000000000600082015250565b6000612bc46011836120f9565b9150612bcf82612b8e565b602082019050919050565b60006020820190508181036000830152612bf381612bb7565b9050919050565b6000604082019050612c0f6000830185612235565b612c1c60208301846123ae565b9392505050565b7f506172656e7420746f6b656e20616c7265616479206578697374730000000000600082015250565b6000612c59601b836120f9565b9150612c6482612c23565b602082019050919050565b60006020820190508181036000830152612c8881612c4c565b9050919050565b600081519050612c9e8161225f565b92915050565b600060208284031215612cba57612cb9612029565b5b6000612cc884828501612c8f565b91505092915050565b7f43616c6c657220646f6573206e6f74206f776e2074686520706172656e74207460008201527f6f6b656e00000000000000000000000000000000000000000000000000000000602082015250565b6000612d2d6024836120f9565b9150612d3882612cd1565b604082019050919050565b60006020820190508181036000830152612d5c81612d20565b9050919050565b7f4f776e61626c653a206e6577206f776e657220697320746865207a65726f206160008201527f6464726573730000000000000000000000000000000000000000000000000000602082015250565b6000612dbf6026836120f9565b9150612dca82612d63565b604082019050919050565b60006020820190508181036000830152612dee81612db2565b9050919050565b7f4552433732313a206f70657261746f7220717565727920666f72206e6f6e657860008201527f697374656e7420746f6b656e0000000000000000000000000000000000000000602082015250565b6000612e51602c836120f9565b9150612e5c82612df5565b604082019050919050565b60006020820190508181036000830152612e8081612e44565b9050919050565b7f4552433732313a207472616e736665722066726f6d20696e636f72726563742060008201527f6f776e6572000000000000000000000000000000000000000000000000000000602082015250565b6000612ee36025836120f9565b9150612eee82612e87565b604082019050919050565b60006020820190508181036000830152612f1281612ed6565b9050919050565b7f4552433732313a207472616e7366657220746f20746865207a65726f2061646460008201527f7265737300000000000000000000000000000000000000000000000000000000602082015250565b6000612f756024836120f9565b9150612f8082612f19565b604082019050919050565b60006020820190508181036000830152612fa481612f68565b9050919050565b7f4e487b7100000000000000000000000000000000000000000000000000000000600052601160045260246000fd5b6000612fe5826121a0565b9150612ff0836121a0565b925082820390508181111561300857613007612fab565b5b92915050565b6000613019826121a0565b9150613024836121a0565b925082820190508082111561303c5761303b612fab565b5b92915050565b7f4552433732313a20617070726f766520746f2063616c6c657200000000000000600082015250565b60006130786019836120f9565b915061308382613042565b602082019050919050565b600060208201905081810360008301526130a78161306b565b9050919050565b7f4552433732313a207472616e7366657220746f206e6f6e20455243373231526560008201527f63656976657220696d706c656d656e7465720000000000000000000000000000602082015250565b600061310a6032836120f9565b9150613115826130ae565b604082019050919050565b60006020820190508181036000830152613139816130fd565b9050919050565b7f45524337323155524953746f726167653a2055524920717565727920666f722060008201527f6e6f6e6578697374656e7420746f6b656e000000000000000000000000000000602082015250565b600061319c6031836120f9565b91506131a782613140565b604082019050919050565b600060208201905081810360008301526131cb8161318f565b9050919050565b600081905092915050565b60006131e8826120ee565b6131f281856131d2565b935061320281856020860161210a565b80840191505092915050565b600061321a82856131dd565b915061322682846131dd565b91508190509392505050565b7f45524337323155524953746f726167653a2055524920736574206f66206e6f6e60008201527f6578697374656e7420746f6b656e000000000000000000000000000000000000602082015250565b600061328e602e836120f9565b915061329982613232565b604082019050919050565b600060208201905081810360008301526132bd81613281565b9050919050565b60008190508160005260206000209050919050565b60006020601f8301049050919050565b600082821b905092915050565b6000600883026133267fffffffffffffffffffffffffffffffffffffffffffffffffffffffffffffffff826132e9565b61333086836132e9565b95508019841693508086168417925050509392505050565b6000819050919050565b600061336d613368613363846121a0565b613348565b6121a0565b9050919050565b6000819050919050565b61338783613352565b61339b61339382613374565b8484546132f6565b825550505050565b600090565b6133b06133a3565b6133bb81848461337e565b505050565b5b818110156133df576133d46000826133a8565b6001810190506133c1565b5050565b601f821115613424576133f5816132c4565b6133fe846132d9565b8101602085101561340d578190505b613421613419856132d9565b8301826133c0565b50505b505050565b600082821c905092915050565b600061344760001984600802613429565b1980831691505092915050565b60006134608383613436565b9150826002028217905092915050565b613479826120ee565b67ffffffffffffffff8111156134925761349161244e565b5b61349c825461273f565b6134a78282856133e3565b600060209050601f8311600181146134da57600084156134c8578287015190505b6134d28582613454565b86555061353a565b601f1984166134e8866132c4565b60005b82811015613510578489015182556001820191506020850194506020810190506134eb565b8683101561352d5784890151613529601f891682613436565b8355505b6001600288020188555050505b505050505050565b600081519050919050565b600082825260208201905092915050565b600061356982613542565b613573818561354d565b935061358381856020860161210a565b61358c81612134565b840191505092915050565b60006080820190506135ac6000830187612235565b6135b96020830186612235565b6135c660408301856123ae565b81810360608301526135d8818461355e565b905095945050505050565b6000815190506135f28161205f565b92915050565b60006020828403121561360e5761360d612029565b5b600061361c848285016135e3565b91505092915050565b7f4552433732314d657461646174613a2055524920717565727920666f72206e6f60008201527f6e6578697374656e7420746f6b656e0000000000000000000000000000000000602082015250565b6000613681602f836120f9565b915061368c82613625565b604082019050919050565b600060208201905081810360008301526136b081613674565b9050919050565b60006136c2826121a0565b91507fffffffffffffffffffffffffffffffffffffffffffffffffffffffffffffffff82036136f4576136f3612fab565b5b600182019050919050565b7f4e487b7100000000000000000000000000000000000000000000000000000000600052601260045260246000fd5b6000613739826121a0565b9150613744836121a0565b925082613754576137536136ff565b5b828204905092915050565b600061376a826121a0565b9150613775836121a0565b925082613785576137846136ff565b5b828206905092915050565b7f4e487b7100000000000000000000000000000000000000000000000000000000600052603260045260246000fd5b7f4552433732313a206d696e7420746f20746865207a65726f2061646472657373600082015250565b60006137f56020836120f9565b9150613800826137bf565b602082019050919050565b60006020820190508181036000830152613824816137e8565b9050919050565b7f4552433732313a20746f6b656e20616c7265616479206d696e74656400000000600082015250565b6000613861601c836120f9565b915061386c8261382b565b602082019050919050565b6000602082019050818103600083015261389081613854565b905091905056fea26469706673582212209943014f84c192f71c0b98613a4618e760036d537174bd15b74b2d3a8e97386864736f6c63430008100033",
  "immutableReferences": {},
  "source": "/*\n   . *@O                . o@O                  O@O.                 .#@o.                 @@o.               . *@#o.\n   . *@O                . o@O                . O@O .             . .#@o. .             . @@o. .             . *@#o.\n     *@o.                  o@o.                  O@o.                 .##o.                 .@#o                  *@#*\n****o#Oo*****************o#o****OOo***OOo**OOo*oOOo*\n.....o@@@#.................O@@@#.................#@@@O................@@@@o................@@@@*................o@@@@\n     *@##O                 o@##O                 O@##o                .@@##*                @@##                *@@##.\n   . *@O..              . o@O.                 #@O.                .@@o.                @@o.              . *@#o\n   . *@O                . o@O                  #@O               . .@@o                 @@o. . .  .        . *@#o.\n   . *@O        . .       o@O                  O@O                 .@@O               . @@o         . .   . *@#o.\n   . *@O    ...     .....O@O .        .     ..#@O.*****..@@o                 @@o..o.*..    . . *@#o.\n   . *@O  .    *oO*.*@O@O.**.     ..ooo#@O*o*********oooooo@@O.**..      ..***@@o.*o#O .OOo*  . *@#o.\n   . *@O   **o#o*Oo*.  O#O@O.oOO**o***o*o****#@Ooooo********oo***@@O.o*ooo*.***oooo@@o*@o o. @o*@@O  *@#o.\n   . *@O .##O@@*ooo# .@*O@O.**#o***oO#O**ooo*#@O.**ooo*********@@O*****o#O*oooooooo@@o*@. *@*#O#@* *@#o.\n   . *@O .@#O@#o**O#@@oO@O.oo***o@****oO*. #@O*.  ..o#********@@O.o@o****oO#o*o*****@@o.*@O OO*O.Oo@OO@*@#o.\n   . *@O   o@#o*ooO*.. o@O .**#O****@    #@O**. .. @*******O@@O.*@Ooo***o#o*******@@o.O.OOO*OO#* *@ *@#o.\n   . *@O   o@oO***o@      o@O     @*****#Oo***#@O.****o#OooOO***o@@O.o@ooo*o*O* ..... @@o   OoOoO*o*@ *@#o.\n   . *@O .o#o***@ .  . o@O   ...#O*****ooooo#@OOOOOoooo#@##@@o*o@@O*oo****OO     . @@o .  .*#.@.**oo*# *@#o\n   . *@O o#ooo#o .   o@O  ... o#oo******o*#@O.********o@##@@o**@@O***OOooO       @@o   . .@O*.o*o.@ *@#o\n   . *@O  O#o**oo##  . *O@O       .*oo******#@O.*********oooo****#@oooooO*...@@o    .OO*o.*.oOO *@#o.\n     *@O   @*o***Oo  .O@O#Oo......ooooOO#@OooooOoooooooOOOOo@@OOooOOo#@#Oo** @@o . @oO ***O*  *@#o.\n.....*#o.   o.*O*.ooOo. o#OOoooooOOooooo*OO* .Oo*O**oo**oOOoooOO* o**oooO   ...OO*    *  ....oO. ..*OO*\n*OOOo...******oOOO*....ooOOoooooOo*ooOOooOO**o#o*ooOOoo*oOooo*oo.OOoo.........*Oooo\n     o@@@#     ......      O@@@O .o@@##@@ooO###O@@@@@#o@o**o*#@O .@@@@Ooo##o**O#.      @@@@ ... ....       *@@@@\n   . *@#OO               . o@#OO**oo    o@##.  #@#OOo#@******oo@@# .#@#O#.               @@#O              . *@@#O.\n   . *@O.               . o@O..    oooo.    #@O**@@OOOooOO#@@o@..@@o.  .  ...        @@o               . *@@o\n\nNFT Jail\nAn experimental project by Neon Nacho Labs\nhttps://neonnacho.xyz\n\nFind a bug? Let me know.\nhttps://github.com/Neon-Nacho-Labs\n*/\n\n// SPDX-License-Identifier: MIT\npragma solidity ^0.8.14;\n\nimport \"@openzeppelin/contracts/token/ERC721/ERC721.sol\";\nimport \"@openzeppelin/contracts/token/ERC721/extensions/ERC721URIStorage.sol\";\nimport \"@openzeppelin/contracts/token/ERC721/IERC721.sol\";\nimport \"@openzeppelin/contracts/access/Ownable.sol\";\nimport \"@openzeppelin/contracts/utils/Counters.sol\";\n\ncontract NFTJail is ERC721, ERC721URIStorage, Ownable {\n\tusing Counters for Counters.Counter;\n\n\t// Starts counting at 1 instead of 0\n\tCounters.Counter public tokenIdCounter;\n\n\t// Track minted tokens by parent address and id\n\tmapping (bytes32 => bool) public parentTokenTracker;\n\n\tconstructor() ERC721(\"NFTJail\", \"NFTJAIL\") {}\n\n\tfunction _baseURI() internal pure override returns(string memory) {\n\t\treturn \"ipfs://\";\n\t}\n\n\t/**\n\t * Go to jail!\n\t * Mints an NFT based an existing one from a different contract.\n\t */\n\tfunction mint(address parentContractAddress, uint256 parentTokenId, string calldata _tokenURI) external payable {\n\t\tbytes32 parentHash = keccak256(abi.encode(parentContractAddress, parentTokenId));\n\t\t// Each parent address/token can only be minted once\n\t\trequire(!parentTokenTracker[parentHash], \"Parent token already exists\");\n\n\t\t// Caller must own the parent token\n\t\trequire(msg.sender == IERC721(parentContractAddress).ownerOf(parentTokenId), \"Caller does not own the parent token\");\n\n\t\t// Keep track of parent tokens to prevent duplicates\n\t\tparentTokenTracker[parentHash] = true;\n\n\t\ttokenIdCounter.increment();\n\t\t_safeMint(msg.sender, tokenIdCounter.current());\n\t\t_setTokenURI(tokenIdCounter.current(), _tokenURI);\n\t}\n\n\t/**\n\t * Allow funds to be withdrawn by the owner\n\t */\n\tfunction withdrawAll() public onlyOwner {\n        (bool success,) = payable(msg.sender).call{value : address(this).balance}(\"\");\n        require(success, \"Withdrawal failed\");\n    }\n\n\t/**\n\t * Receive function in case eth gets sent to the contract\n\t */\n\treceive() external payable {}\n\n\t// Override functions\n\tfunction _burn(uint256 tokenId) internal override(ERC721, ERC721URIStorage) {\n        super._burn(tokenId);\n    }\n\n    function tokenURI(uint256 tokenId)\n        public\n        view\n        override(ERC721, ERC721URIStorage)\n        returns (string memory)\n    {\n        return super.tokenURI(tokenId);\n    }\n}\n",
  "sourcePath": "/Users/trav/code/web3/neon-nacho-labs/contracts/NFTJail.sol",
  "compiler": {
    "name": "solc",
    "version": "0.8.16+commit.07a7930e.Emscripten.clang"
  },
  "schemaVersion": "3.4.9",
  "updatedAt": "2022-08-12T23:57:57.263Z",
  "networkType": "ethereum",
  "devdoc": {
    "kind": "dev",
    "methods": {
      "approve(address,uint256)": {
        "details": "See {IERC721-approve}."
      },
      "balanceOf(address)": {
        "details": "See {IERC721-balanceOf}."
      },
      "getApproved(uint256)": {
        "details": "See {IERC721-getApproved}."
      },
      "isApprovedForAll(address,address)": {
        "details": "See {IERC721-isApprovedForAll}."
      },
      "name()": {
        "details": "See {IERC721Metadata-name}."
      },
      "owner()": {
        "details": "Returns the address of the current owner."
      },
      "ownerOf(uint256)": {
        "details": "See {IERC721-ownerOf}."
      },
      "renounceOwnership()": {
        "details": "Leaves the contract without owner. It will not be possible to call `onlyOwner` functions anymore. Can only be called by the current owner. NOTE: Renouncing ownership will leave the contract without an owner, thereby removing any functionality that is only available to the owner."
      },
      "safeTransferFrom(address,address,uint256)": {
        "details": "See {IERC721-safeTransferFrom}."
      },
      "safeTransferFrom(address,address,uint256,bytes)": {
        "details": "See {IERC721-safeTransferFrom}."
      },
      "setApprovalForAll(address,bool)": {
        "details": "See {IERC721-setApprovalForAll}."
      },
      "supportsInterface(bytes4)": {
        "details": "See {IERC165-supportsInterface}."
      },
      "symbol()": {
        "details": "See {IERC721Metadata-symbol}."
      },
      "transferFrom(address,address,uint256)": {
        "details": "See {IERC721-transferFrom}."
      },
      "transferOwnership(address)": {
        "details": "Transfers ownership of the contract to a new account (`newOwner`). Can only be called by the current owner."
      }
    },
    "version": 1
  },
  "userdoc": {
    "kind": "user",
    "methods": {
      "mint(address,uint256,string)": {
        "notice": "Go to jail! Mints an NFT based an existing one from a different contract."
      },
      "withdrawAll()": {
        "notice": "Allow funds to be withdrawn by the owner"
      }
    },
    "version": 1
  }
}