{
  "contractName": "SimpleNFT",
  "abi": [
    {
      "inputs": [],
      "stateMutability": "nonpayable",
      "type": "constructor"
    },
    {
      "anonymous": false,
      "inputs": [
        {
          "indexed": true,
          "internalType": "address",
          "name": "owner",
          "type": "address"
        },
        {
          "indexed": true,
          "internalType": "address",
          "name": "approved",
          "type": "address"
        },
        {
          "indexed": true,
          "internalType": "uint256",
          "name": "tokenId",
          "type": "uint256"
        }
      ],
      "name": "Approval",
      "type": "event"
    },
    {
      "anonymous": false,
      "inputs": [
        {
          "indexed": true,
          "internalType": "address",
          "name": "owner",
          "type": "address"
        },
        {
          "indexed": true,
          "internalType": "address",
          "name": "operator",
          "type": "address"
        },
        {
          "indexed": false,
          "internalType": "bool",
          "name": "approved",
          "type": "bool"
        }
      ],
      "name": "ApprovalForAll",
      "type": "event"
    },
    {
      "anonymous": false,
      "inputs": [
        {
          "indexed": true,
          "internalType": "address",
          "name": "previousOwner",
          "type": "address"
        },
        {
          "indexed": true,
          "internalType": "address",
          "name": "newOwner",
          "type": "address"
        }
      ],
      "name": "OwnershipTransferred",
      "type": "event"
    },
    {
      "anonymous": false,
      "inputs": [
        {
          "indexed": true,
          "internalType": "address",
          "name": "from",
          "type": "address"
        },
        {
          "indexed": true,
          "internalType": "address",
          "name": "to",
          "type": "address"
        },
        {
          "indexed": true,
          "internalType": "uint256",
          "name": "tokenId",
          "type": "uint256"
        }
      ],
      "name": "Transfer",
      "type": "event"
    },
    {
      "inputs": [
        {
          "internalType": "address",
          "name": "to",
          "type": "address"
        },
        {
          "internalType": "uint256",
          "name": "tokenId",
          "type": "uint256"
        }
      ],
      "name": "approve",
      "outputs": [],
      "stateMutability": "nonpayable",
      "type": "function"
    },
    {
      "inputs": [
        {
          "internalType": "address",
          "name": "owner",
          "type": "address"
        }
      ],
      "name": "balanceOf",
      "outputs": [
        {
          "internalType": "uint256",
          "name": "",
          "type": "uint256"
        }
      ],
      "stateMutability": "view",
      "type": "function",
      "constant": true
    },
    {
      "inputs": [
        {
          "internalType": "uint256",
          "name": "tokenId",
          "type": "uint256"
        }
      ],
      "name": "getApproved",
      "outputs": [
        {
          "internalType": "address",
          "name": "",
          "type": "address"
        }
      ],
      "stateMutability": "view",
      "type": "function",
      "constant": true
    },
    {
      "inputs": [
        {
          "internalType": "address",
          "name": "owner",
          "type": "address"
        },
        {
          "internalType": "address",
          "name": "operator",
          "type": "address"
        }
      ],
      "name": "isApprovedForAll",
      "outputs": [
        {
          "internalType": "bool",
          "name": "",
          "type": "bool"
        }
      ],
      "stateMutability": "view",
      "type": "function",
      "constant": true
    },
    {
      "inputs": [],
      "name": "name",
      "outputs": [
        {
          "internalType": "string",
          "name": "",
          "type": "string"
        }
      ],
      "stateMutability": "view",
      "type": "function",
      "constant": true
    },
    {
      "inputs": [],
      "name": "owner",
      "outputs": [
        {
          "internalType": "address",
          "name": "",
          "type": "address"
        }
      ],
      "stateMutability": "view",
      "type": "function",
      "constant": true
    },
    {
      "inputs": [
        {
          "internalType": "uint256",
          "name": "tokenId",
          "type": "uint256"
        }
      ],
      "name": "ownerOf",
      "outputs": [
        {
          "internalType": "address",
          "name": "",
          "type": "address"
        }
      ],
      "stateMutability": "view",
      "type": "function",
      "constant": true
    },
    {
      "inputs": [],
      "name": "renounceOwnership",
      "outputs": [],
      "stateMutability": "nonpayable",
      "type": "function"
    },
    {
      "inputs": [
        {
          "internalType": "address",
          "name": "from",
          "type": "address"
        },
        {
          "internalType": "address",
          "name": "to",
          "type": "address"
        },
        {
          "internalType": "uint256",
          "name": "tokenId",
          "type": "uint256"
        }
      ],
      "name": "safeTransferFrom",
      "outputs": [],
      "stateMutability": "nonpayable",
      "type": "function"
    },
    {
      "inputs": [
        {
          "internalType": "address",
          "name": "from",
          "type": "address"
        },
        {
          "internalType": "address",
          "name": "to",
          "type": "address"
        },
        {
          "internalType": "uint256",
          "name": "tokenId",
          "type": "uint256"
        },
        {
          "internalType": "bytes",
          "name": "_data",
          "type": "bytes"
        }
      ],
      "name": "safeTransferFrom",
      "outputs": [],
      "stateMutability": "nonpayable",
      "type": "function"
    },
    {
      "inputs": [
        {
          "internalType": "address",
          "name": "operator",
          "type": "address"
        },
        {
          "internalType": "bool",
          "name": "approved",
          "type": "bool"
        }
      ],
      "name": "setApprovalForAll",
      "outputs": [],
      "stateMutability": "nonpayable",
      "type": "function"
    },
    {
      "inputs": [
        {
          "internalType": "bytes4",
          "name": "interfaceId",
          "type": "bytes4"
        }
      ],
      "name": "supportsInterface",
      "outputs": [
        {
          "internalType": "bool",
          "name": "",
          "type": "bool"
        }
      ],
      "stateMutability": "view",
      "type": "function",
      "constant": true
    },
    {
      "inputs": [],
      "name": "symbol",
      "outputs": [
        {
          "internalType": "string",
          "name": "",
          "type": "string"
        }
      ],
      "stateMutability": "view",
      "type": "function",
      "constant": true
    },
    {
      "inputs": [],
      "name": "tokenIdCounter",
      "outputs": [
        {
          "internalType": "uint256",
          "name": "_value",
          "type": "uint256"
        }
      ],
      "stateMutability": "view",
      "type": "function",
      "constant": true
    },
    {
      "inputs": [
        {
          "internalType": "address",
          "name": "from",
          "type": "address"
        },
        {
          "internalType": "address",
          "name": "to",
          "type": "address"
        },
        {
          "internalType": "uint256",
          "name": "tokenId",
          "type": "uint256"
        }
      ],
      "name": "transferFrom",
      "outputs": [],
      "stateMutability": "nonpayable",
      "type": "function"
    },
    {
      "inputs": [
        {
          "internalType": "address",
          "name": "newOwner",
          "type": "address"
        }
      ],
      "name": "transferOwnership",
      "outputs": [],
      "stateMutability": "nonpayable",
      "type": "function"
    },
    {
      "inputs": [],
      "name": "uriSuffix",
      "outputs": [
        {
          "internalType": "string",
          "name": "",
          "type": "string"
        }
      ],
      "stateMutability": "view",
      "type": "function",
      "constant": true
    },
    {
      "inputs": [
        {
          "internalType": "address",
          "name": "to",
          "type": "address"
        }
      ],
      "name": "safeMint",
      "outputs": [],
      "stateMutability": "nonpayable",
      "type": "function"
    },
    {
      "inputs": [
        {
          "internalType": "uint256",
          "name": "_tokenId",
          "type": "uint256"
        }
      ],
      "name": "tokenURI",
      "outputs": [
        {
          "internalType": "string",
          "name": "",
          "type": "string"
        }
      ],
      "stateMutability": "view",
      "type": "function",
      "constant": true
    }
  ],
  "bytecode": "0x60806040526040518060400160405280600581526020017f2e6a736f6e000000000000000000000000000000000000000000000000000000815250600890816200004a919062000459565b503480156200005857600080fd5b506040518060400160405280600981526020017f53696d706c654e465400000000000000000000000000000000000000000000008152506040518060400160405280600981526020017f53494d504c454e465400000000000000000000000000000000000000000000008152508160009081620000d6919062000459565b508060019081620000e8919062000459565b5050506200010b620000ff6200011160201b60201c565b6200011960201b60201c565b62000540565b600033905090565b6000600660009054906101000a900473ffffffffffffffffffffffffffffffffffffffff16905081600660006101000a81548173ffffffffffffffffffffffffffffffffffffffff021916908373ffffffffffffffffffffffffffffffffffffffff1602179055508173ffffffffffffffffffffffffffffffffffffffff168173ffffffffffffffffffffffffffffffffffffffff167f8be0079c531659141344cd1fd0a4f28419497f9722a3daafe3b4186f6b6457e060405160405180910390a35050565b600081519050919050565b7f4e487b7100000000000000000000000000000000000000000000000000000000600052604160045260246000fd5b7f4e487b7100000000000000000000000000000000000000000000000000000000600052602260045260246000fd5b600060028204905060018216806200026157607f821691505b60208210810362000277576200027662000219565b5b50919050565b60008190508160005260206000209050919050565b60006020601f8301049050919050565b600082821b905092915050565b600060088302620002e17fffffffffffffffffffffffffffffffffffffffffffffffffffffffffffffffff82620002a2565b620002ed8683620002a2565b95508019841693508086168417925050509392505050565b6000819050919050565b6000819050919050565b60006200033a620003346200032e8462000305565b6200030f565b62000305565b9050919050565b6000819050919050565b620003568362000319565b6200036e620003658262000341565b848454620002af565b825550505050565b600090565b6200038562000376565b620003928184846200034b565b505050565b5b81811015620003ba57620003ae6000826200037b565b60018101905062000398565b5050565b601f8211156200040957620003d3816200027d565b620003de8462000292565b81016020851015620003ee578190505b62000406620003fd8562000292565b83018262000397565b50505b505050565b600082821c905092915050565b60006200042e600019846008026200040e565b1980831691505092915050565b60006200044983836200041b565b9150826002028217905092915050565b6200046482620001df565b67ffffffffffffffff81111562000480576200047f620001ea565b5b6200048c825462000248565b62000499828285620003be565b600060209050601f831160018114620004d15760008415620004bc578287015190505b620004c885826200043b565b86555062000538565b601f198416620004e1866200027d565b60005b828110156200050b57848901518255600182019150602085019450602081019050620004e4565b868310156200052b578489015162000527601f8916826200041b565b8355505b6001600288020188555050505b505050505050565b612d7c80620005506000396000f3fe608060405234801561001057600080fd5b50600436106101215760003560e01c806370a08231116100ad578063a22cb46511610071578063a22cb465146102f6578063b88d4fde14610312578063c87b56dd1461032e578063e985e9c51461035e578063f2fde38b1461038e57610121565b806370a0823114610262578063715018a6146102925780638da5cb5b1461029c57806395d89b41146102ba57806398bdf6f5146102d857610121565b806323b872dd116100f457806323b872dd146101c057806340d097c3146101dc57806342842e0e146101f85780635503a0e8146102145780636352211e1461023257610121565b806301ffc9a71461012657806306fdde0314610156578063081812fc14610174578063095ea7b3146101a4575b600080fd5b610140600480360381019061013b9190611b4e565b6103aa565b60405161014d9190611b96565b60405180910390f35b61015e61048c565b60405161016b9190611c4a565b60405180910390f35b61018e60048036038101906101899190611ca2565b61051e565b60405161019b9190611d10565b60405180910390f35b6101be60048036038101906101b99190611d57565b6105a3565b005b6101da60048036038101906101d59190611d97565b6106ba565b005b6101f660048036038101906101f19190611dea565b61071a565b005b610212600480360381019061020d9190611d97565b6107bc565b005b61021c6107dc565b6040516102299190611c4a565b60405180910390f35b61024c60048036038101906102479190611ca2565b61086a565b6040516102599190611d10565b60405180910390f35b61027c60048036038101906102779190611dea565b61091b565b6040516102899190611e26565b60405180910390f35b61029a6109d2565b005b6102a4610a5a565b6040516102b19190611d10565b60405180910390f35b6102c2610a84565b6040516102cf9190611c4a565b60405180910390f35b6102e0610b16565b6040516102ed9190611e26565b60405180910390f35b610310600480360381019061030b9190611e6d565b610b22565b005b61032c60048036038101906103279190611fe2565b610b38565b005b61034860048036038101906103439190611ca2565b610b9a565b6040516103559190611c4a565b60405180910390f35b61037860048036038101906103739190612065565b610c44565b6040516103859190611b96565b60405180910390f35b6103a860048036038101906103a39190611dea565b610cd8565b005b60007f80ac58cd000000000000000000000000000000000000000000000000000000007bffffffffffffffffffffffffffffffffffffffffffffffffffffffff1916827bffffffffffffffffffffffffffffffffffffffffffffffffffffffff1916148061047557507f5b5e139f000000000000000000000000000000000000000000000000000000007bffffffffffffffffffffffffffffffffffffffffffffffffffffffff1916827bffffffffffffffffffffffffffffffffffffffffffffffffffffffff1916145b80610485575061048482610dcf565b5b9050919050565b60606000805461049b906120d4565b80601f01602080910402602001604051908101604052809291908181526020018280546104c7906120d4565b80156105145780601f106104e957610100808354040283529160200191610514565b820191906000526020600020905b8154815290600101906020018083116104f757829003601f168201915b5050505050905090565b600061052982610e39565b610568576040517f08c379a000000000000000000000000000000000000000000000000000000000815260040161055f90612177565b60405180910390fd5b6004600083815260200190815260200160002060009054906101000a900473ffffffffffffffffffffffffffffffffffffffff169050919050565b60006105ae8261086a565b90508073ffffffffffffffffffffffffffffffffffffffff168373ffffffffffffffffffffffffffffffffffffffff160361061e576040517f08c379a000000000000000000000000000000000000000000000000000000000815260040161061590612209565b60405180910390fd5b8073ffffffffffffffffffffffffffffffffffffffff1661063d610ea5565b73ffffffffffffffffffffffffffffffffffffffff16148061066c575061066b81610666610ea5565b610c44565b5b6106ab576040517f08c379a00000000000000000000000000000000000000000000000000000000081526004016106a29061229b565b60405180910390fd5b6106b58383610ead565b505050565b6106cb6106c5610ea5565b82610f66565b61070a576040517f08c379a00000000000000000000000000000000000000000000000000000000081526004016107019061232d565b60405180910390fd5b610715838383611044565b505050565b610722610ea5565b73ffffffffffffffffffffffffffffffffffffffff16610740610a5a565b73ffffffffffffffffffffffffffffffffffffffff1614610796576040517f08c379a000000000000000000000000000000000000000000000000000000000815260040161078d90612399565b60405180910390fd5b6107a060076112aa565b60006107ac60076112c0565b90506107b882826112ce565b5050565b6107d783838360405180602001604052806000815250610b38565b505050565b600880546107e9906120d4565b80601f0160208091040260200160405190810160405280929190818152602001828054610815906120d4565b80156108625780601f1061083757610100808354040283529160200191610862565b820191906000526020600020905b81548152906001019060200180831161084557829003601f168201915b505050505081565b6000806002600084815260200190815260200160002060009054906101000a900473ffffffffffffffffffffffffffffffffffffffff169050600073ffffffffffffffffffffffffffffffffffffffff168173ffffffffffffffffffffffffffffffffffffffff1603610912576040517f08c379a00000000000000000000000000000000000000000000000000000000081526004016109099061242b565b60405180910390fd5b80915050919050565b60008073ffffffffffffffffffffffffffffffffffffffff168273ffffffffffffffffffffffffffffffffffffffff160361098b576040517f08c379a0000000000000000000000000000000000000000000000000000000008152600401610982906124bd565b60405180910390fd5b600360008373ffffffffffffffffffffffffffffffffffffffff1673ffffffffffffffffffffffffffffffffffffffff168152602001908152602001600020549050919050565b6109da610ea5565b73ffffffffffffffffffffffffffffffffffffffff166109f8610a5a565b73ffffffffffffffffffffffffffffffffffffffff1614610a4e576040517f08c379a0000000000000000000000000000000000000000000000000000000008152600401610a4590612399565b60405180910390fd5b610a5860006112ec565b565b6000600660009054906101000a900473ffffffffffffffffffffffffffffffffffffffff16905090565b606060018054610a93906120d4565b80601f0160208091040260200160405190810160405280929190818152602001828054610abf906120d4565b8015610b0c5780601f10610ae157610100808354040283529160200191610b0c565b820191906000526020600020905b815481529060010190602001808311610aef57829003601f168201915b5050505050905090565b60078060000154905081565b610b34610b2d610ea5565b83836113b2565b5050565b610b49610b43610ea5565b83610f66565b610b88576040517f08c379a0000000000000000000000000000000000000000000000000000000008152600401610b7f9061232d565b60405180910390fd5b610b948484848461151e565b50505050565b6060610ba582610e39565b610be4576040517f08c379a0000000000000000000000000000000000000000000000000000000008152600401610bdb90612529565b60405180910390fd5b6000610bee61157a565b90506000815111610c0e5760405180602001604052806000815250610c3c565b80610c188461159a565b6008604051602001610c2c9392919061261d565b6040516020818303038152906040525b915050919050565b6000600560008473ffffffffffffffffffffffffffffffffffffffff1673ffffffffffffffffffffffffffffffffffffffff16815260200190815260200160002060008373ffffffffffffffffffffffffffffffffffffffff1673ffffffffffffffffffffffffffffffffffffffff16815260200190815260200160002060009054906101000a900460ff16905092915050565b610ce0610ea5565b73ffffffffffffffffffffffffffffffffffffffff16610cfe610a5a565b73ffffffffffffffffffffffffffffffffffffffff1614610d54576040517f08c379a0000000000000000000000000000000000000000000000000000000008152600401610d4b90612399565b60405180910390fd5b600073ffffffffffffffffffffffffffffffffffffffff168173ffffffffffffffffffffffffffffffffffffffff1603610dc3576040517f08c379a0000000000000000000000000000000000000000000000000000000008152600401610dba906126c0565b60405180910390fd5b610dcc816112ec565b50565b60007f01ffc9a7000000000000000000000000000000000000000000000000000000007bffffffffffffffffffffffffffffffffffffffffffffffffffffffff1916827bffffffffffffffffffffffffffffffffffffffffffffffffffffffff1916149050919050565b60008073ffffffffffffffffffffffffffffffffffffffff166002600084815260200190815260200160002060009054906101000a900473ffffffffffffffffffffffffffffffffffffffff1673ffffffffffffffffffffffffffffffffffffffff1614159050919050565b600033905090565b816004600083815260200190815260200160002060006101000a81548173ffffffffffffffffffffffffffffffffffffffff021916908373ffffffffffffffffffffffffffffffffffffffff160217905550808273ffffffffffffffffffffffffffffffffffffffff16610f208361086a565b73ffffffffffffffffffffffffffffffffffffffff167f8c5be1e5ebec7d5bd14f71427d1e84f3dd0314c0f7b2291e5b200ac8c7c3b92560405160405180910390a45050565b6000610f7182610e39565b610fb0576040517f08c379a0000000000000000000000000000000000000000000000000000000008152600401610fa790612752565b60405180910390fd5b6000610fbb8361086a565b90508073ffffffffffffffffffffffffffffffffffffffff168473ffffffffffffffffffffffffffffffffffffffff161480610ffd5750610ffc8185610c44565b5b8061103b57508373ffffffffffffffffffffffffffffffffffffffff166110238461051e565b73ffffffffffffffffffffffffffffffffffffffff16145b91505092915050565b8273ffffffffffffffffffffffffffffffffffffffff166110648261086a565b73ffffffffffffffffffffffffffffffffffffffff16146110ba576040517f08c379a00000000000000000000000000000000000000000000000000000000081526004016110b1906127e4565b60405180910390fd5b600073ffffffffffffffffffffffffffffffffffffffff168273ffffffffffffffffffffffffffffffffffffffff1603611129576040517f08c379a000000000000000000000000000000000000000000000000000000000815260040161112090612876565b60405180910390fd5b6111348383836116fa565b61113f600082610ead565b6001600360008573ffffffffffffffffffffffffffffffffffffffff1673ffffffffffffffffffffffffffffffffffffffff168152602001908152602001600020600082825461118f91906128c5565b925050819055506001600360008473ffffffffffffffffffffffffffffffffffffffff1673ffffffffffffffffffffffffffffffffffffffff16815260200190815260200160002060008282546111e691906128f9565b92505081905550816002600083815260200190815260200160002060006101000a81548173ffffffffffffffffffffffffffffffffffffffff021916908373ffffffffffffffffffffffffffffffffffffffff160217905550808273ffffffffffffffffffffffffffffffffffffffff168473ffffffffffffffffffffffffffffffffffffffff167fddf252ad1be2c89b69c2b068fc378daa952ba7f163c4a11628f55a4df523b3ef60405160405180910390a46112a58383836116ff565b505050565b6001816000016000828254019250508190555050565b600081600001549050919050565b6112e8828260405180602001604052806000815250611704565b5050565b6000600660009054906101000a900473ffffffffffffffffffffffffffffffffffffffff16905081600660006101000a81548173ffffffffffffffffffffffffffffffffffffffff021916908373ffffffffffffffffffffffffffffffffffffffff1602179055508173ffffffffffffffffffffffffffffffffffffffff168173ffffffffffffffffffffffffffffffffffffffff167f8be0079c531659141344cd1fd0a4f28419497f9722a3daafe3b4186f6b6457e060405160405180910390a35050565b8173ffffffffffffffffffffffffffffffffffffffff168373ffffffffffffffffffffffffffffffffffffffff1603611420576040517f08c379a00000000000000000000000000000000000000000000000000000000081526004016114179061299b565b60405180910390fd5b80600560008573ffffffffffffffffffffffffffffffffffffffff1673ffffffffffffffffffffffffffffffffffffffff16815260200190815260200160002060008473ffffffffffffffffffffffffffffffffffffffff1673ffffffffffffffffffffffffffffffffffffffff16815260200190815260200160002060006101000a81548160ff0219169083151502179055508173ffffffffffffffffffffffffffffffffffffffff168373ffffffffffffffffffffffffffffffffffffffff167f17307eab39ab6107e8899845ad3d59bd9653f200f220920489ca2b5937696c31836040516115119190611b96565b60405180910390a3505050565b611529848484611044565b6115358484848461175f565b611574576040517f08c379a000000000000000000000000000000000000000000000000000000000815260040161156b90612a2d565b60405180910390fd5b50505050565b6060604051806060016040528060368152602001612d1160369139905090565b6060600082036115e1576040518060400160405280600181526020017f300000000000000000000000000000000000000000000000000000000000000081525090506116f5565b600082905060005b600082146116135780806115fc90612a4d565b915050600a8261160c9190612ac4565b91506115e9565b60008167ffffffffffffffff81111561162f5761162e611eb7565b5b6040519080825280601f01601f1916602001820160405280156116615781602001600182028036833780820191505090505b5090505b600085146116ee5760018261167a91906128c5565b9150600a856116899190612af5565b603061169591906128f9565b60f81b8183815181106116ab576116aa612b26565b5b60200101907effffffffffffffffffffffffffffffffffffffffffffffffffffffffffffff1916908160001a905350600a856116e79190612ac4565b9450611665565b8093505050505b919050565b505050565b505050565b61170e83836118e6565b61171b600084848461175f565b61175a576040517f08c379a000000000000000000000000000000000000000000000000000000000815260040161175190612a2d565b60405180910390fd5b505050565b60006117808473ffffffffffffffffffffffffffffffffffffffff16611abf565b156118d9578373ffffffffffffffffffffffffffffffffffffffff1663150b7a026117a9610ea5565b8786866040518563ffffffff1660e01b81526004016117cb9493929190612baa565b6020604051808303816000875af192505050801561180757506040513d601f19601f820116820180604052508101906118049190612c0b565b60015b611889573d8060008114611837576040519150601f19603f3d011682016040523d82523d6000602084013e61183c565b606091505b506000815103611881576040517f08c379a000000000000000000000000000000000000000000000000000000000815260040161187890612a2d565b60405180910390fd5b805181602001fd5b63150b7a0260e01b7bffffffffffffffffffffffffffffffffffffffffffffffffffffffff1916817bffffffffffffffffffffffffffffffffffffffffffffffffffffffff1916149150506118de565b600190505b949350505050565b600073ffffffffffffffffffffffffffffffffffffffff168273ffffffffffffffffffffffffffffffffffffffff1603611955576040517f08c379a000000000000000000000000000000000000000000000000000000000815260040161194c90612c84565b60405180910390fd5b61195e81610e39565b1561199e576040517f08c379a000000000000000000000000000000000000000000000000000000000815260040161199590612cf0565b60405180910390fd5b6119aa600083836116fa565b6001600360008473ffffffffffffffffffffffffffffffffffffffff1673ffffffffffffffffffffffffffffffffffffffff16815260200190815260200160002060008282546119fa91906128f9565b92505081905550816002600083815260200190815260200160002060006101000a81548173ffffffffffffffffffffffffffffffffffffffff021916908373ffffffffffffffffffffffffffffffffffffffff160217905550808273ffffffffffffffffffffffffffffffffffffffff16600073ffffffffffffffffffffffffffffffffffffffff167fddf252ad1be2c89b69c2b068fc378daa952ba7f163c4a11628f55a4df523b3ef60405160405180910390a4611abb600083836116ff565b5050565b6000808273ffffffffffffffffffffffffffffffffffffffff163b119050919050565b6000604051905090565b600080fd5b600080fd5b60007fffffffff0000000000000000000000000000000000000000000000000000000082169050919050565b611b2b81611af6565b8114611b3657600080fd5b50565b600081359050611b4881611b22565b92915050565b600060208284031215611b6457611b63611aec565b5b6000611b7284828501611b39565b91505092915050565b60008115159050919050565b611b9081611b7b565b82525050565b6000602082019050611bab6000830184611b87565b92915050565b600081519050919050565b600082825260208201905092915050565b60005b83811015611beb578082015181840152602081019050611bd0565b83811115611bfa576000848401525b50505050565b6000601f19601f8301169050919050565b6000611c1c82611bb1565b611c268185611bbc565b9350611c36818560208601611bcd565b611c3f81611c00565b840191505092915050565b60006020820190508181036000830152611c648184611c11565b905092915050565b6000819050919050565b611c7f81611c6c565b8114611c8a57600080fd5b50565b600081359050611c9c81611c76565b92915050565b600060208284031215611cb857611cb7611aec565b5b6000611cc684828501611c8d565b91505092915050565b600073ffffffffffffffffffffffffffffffffffffffff82169050919050565b6000611cfa82611ccf565b9050919050565b611d0a81611cef565b82525050565b6000602082019050611d256000830184611d01565b92915050565b611d3481611cef565b8114611d3f57600080fd5b50565b600081359050611d5181611d2b565b92915050565b60008060408385031215611d6e57611d6d611aec565b5b6000611d7c85828601611d42565b9250506020611d8d85828601611c8d565b9150509250929050565b600080600060608486031215611db057611daf611aec565b5b6000611dbe86828701611d42565b9350506020611dcf86828701611d42565b9250506040611de086828701611c8d565b9150509250925092565b600060208284031215611e0057611dff611aec565b5b6000611e0e84828501611d42565b91505092915050565b611e2081611c6c565b82525050565b6000602082019050611e3b6000830184611e17565b92915050565b611e4a81611b7b565b8114611e5557600080fd5b50565b600081359050611e6781611e41565b92915050565b60008060408385031215611e8457611e83611aec565b5b6000611e9285828601611d42565b9250506020611ea385828601611e58565b9150509250929050565b600080fd5b600080fd5b7f4e487b7100000000000000000000000000000000000000000000000000000000600052604160045260246000fd5b611eef82611c00565b810181811067ffffffffffffffff82111715611f0e57611f0d611eb7565b5b80604052505050565b6000611f21611ae2565b9050611f2d8282611ee6565b919050565b600067ffffffffffffffff821115611f4d57611f4c611eb7565b5b611f5682611c00565b9050602081019050919050565b82818337600083830152505050565b6000611f85611f8084611f32565b611f17565b905082815260208101848484011115611fa157611fa0611eb2565b5b611fac848285611f63565b509392505050565b600082601f830112611fc957611fc8611ead565b5b8135611fd9848260208601611f72565b91505092915050565b60008060008060808587031215611ffc57611ffb611aec565b5b600061200a87828801611d42565b945050602061201b87828801611d42565b935050604061202c87828801611c8d565b925050606085013567ffffffffffffffff81111561204d5761204c611af1565b5b61205987828801611fb4565b91505092959194509250565b6000806040838503121561207c5761207b611aec565b5b600061208a85828601611d42565b925050602061209b85828601611d42565b9150509250929050565b7f4e487b7100000000000000000000000000000000000000000000000000000000600052602260045260246000fd5b600060028204905060018216806120ec57607f821691505b6020821081036120ff576120fe6120a5565b5b50919050565b7f4552433732313a20617070726f76656420717565727920666f72206e6f6e657860008201527f697374656e7420746f6b656e0000000000000000000000000000000000000000602082015250565b6000612161602c83611bbc565b915061216c82612105565b604082019050919050565b6000602082019050818103600083015261219081612154565b9050919050565b7f4552433732313a20617070726f76616c20746f2063757272656e74206f776e6560008201527f7200000000000000000000000000000000000000000000000000000000000000602082015250565b60006121f3602183611bbc565b91506121fe82612197565b604082019050919050565b60006020820190508181036000830152612222816121e6565b9050919050565b7f4552433732313a20617070726f76652063616c6c6572206973206e6f74206f7760008201527f6e6572206e6f7220617070726f76656420666f7220616c6c0000000000000000602082015250565b6000612285603883611bbc565b915061229082612229565b604082019050919050565b600060208201905081810360008301526122b481612278565b9050919050565b7f4552433732313a207472616e736665722063616c6c6572206973206e6f74206f60008201527f776e6572206e6f7220617070726f766564000000000000000000000000000000602082015250565b6000612317603183611bbc565b9150612322826122bb565b604082019050919050565b600060208201905081810360008301526123468161230a565b9050919050565b7f4f776e61626c653a2063616c6c6572206973206e6f7420746865206f776e6572600082015250565b6000612383602083611bbc565b915061238e8261234d565b602082019050919050565b600060208201905081810360008301526123b281612376565b9050919050565b7f4552433732313a206f776e657220717565727920666f72206e6f6e657869737460008201527f656e7420746f6b656e0000000000000000000000000000000000000000000000602082015250565b6000612415602983611bbc565b9150612420826123b9565b604082019050919050565b6000602082019050818103600083015261244481612408565b9050919050565b7f4552433732313a2062616c616e636520717565727920666f7220746865207a6560008201527f726f206164647265737300000000000000000000000000000000000000000000602082015250565b60006124a7602a83611bbc565b91506124b28261244b565b604082019050919050565b600060208201905081810360008301526124d68161249a565b9050919050565b7f55524920717565727920666f72206e6f6e6578697374656e7420746f6b656e00600082015250565b6000612513601f83611bbc565b915061251e826124dd565b602082019050919050565b6000602082019050818103600083015261254281612506565b9050919050565b600081905092915050565b600061255f82611bb1565b6125698185612549565b9350612579818560208601611bcd565b80840191505092915050565b60008190508160005260206000209050919050565b600081546125a7816120d4565b6125b18186612549565b945060018216600081146125cc57600181146125e157612614565b60ff1983168652811515820286019350612614565b6125ea85612585565b60005b8381101561260c578154818901526001820191506020810190506125ed565b838801955050505b50505092915050565b60006126298286612554565b91506126358285612554565b9150612641828461259a565b9150819050949350505050565b7f4f776e61626c653a206e6577206f776e657220697320746865207a65726f206160008201527f6464726573730000000000000000000000000000000000000000000000000000602082015250565b60006126aa602683611bbc565b91506126b58261264e565b604082019050919050565b600060208201905081810360008301526126d98161269d565b9050919050565b7f4552433732313a206f70657261746f7220717565727920666f72206e6f6e657860008201527f697374656e7420746f6b656e0000000000000000000000000000000000000000602082015250565b600061273c602c83611bbc565b9150612747826126e0565b604082019050919050565b6000602082019050818103600083015261276b8161272f565b9050919050565b7f4552433732313a207472616e736665722066726f6d20696e636f72726563742060008201527f6f776e6572000000000000000000000000000000000000000000000000000000602082015250565b60006127ce602583611bbc565b91506127d982612772565b604082019050919050565b600060208201905081810360008301526127fd816127c1565b9050919050565b7f4552433732313a207472616e7366657220746f20746865207a65726f2061646460008201527f7265737300000000000000000000000000000000000000000000000000000000602082015250565b6000612860602483611bbc565b915061286b82612804565b604082019050919050565b6000602082019050818103600083015261288f81612853565b9050919050565b7f4e487b7100000000000000000000000000000000000000000000000000000000600052601160045260246000fd5b60006128d082611c6c565b91506128db83611c6c565b9250828210156128ee576128ed612896565b5b828203905092915050565b600061290482611c6c565b915061290f83611c6c565b9250827fffffffffffffffffffffffffffffffffffffffffffffffffffffffffffffffff0382111561294457612943612896565b5b828201905092915050565b7f4552433732313a20617070726f766520746f2063616c6c657200000000000000600082015250565b6000612985601983611bbc565b91506129908261294f565b602082019050919050565b600060208201905081810360008301526129b481612978565b9050919050565b7f4552433732313a207472616e7366657220746f206e6f6e20455243373231526560008201527f63656976657220696d706c656d656e7465720000000000000000000000000000602082015250565b6000612a17603283611bbc565b9150612a22826129bb565b604082019050919050565b60006020820190508181036000830152612a4681612a0a565b9050919050565b6000612a5882611c6c565b91507fffffffffffffffffffffffffffffffffffffffffffffffffffffffffffffffff8203612a8a57612a89612896565b5b600182019050919050565b7f4e487b7100000000000000000000000000000000000000000000000000000000600052601260045260246000fd5b6000612acf82611c6c565b9150612ada83611c6c565b925082612aea57612ae9612a95565b5b828204905092915050565b6000612b0082611c6c565b9150612b0b83611c6c565b925082612b1b57612b1a612a95565b5b828206905092915050565b7f4e487b7100000000000000000000000000000000000000000000000000000000600052603260045260246000fd5b600081519050919050565b600082825260208201905092915050565b6000612b7c82612b55565b612b868185612b60565b9350612b96818560208601611bcd565b612b9f81611c00565b840191505092915050565b6000608082019050612bbf6000830187611d01565b612bcc6020830186611d01565b612bd96040830185611e17565b8181036060830152612beb8184612b71565b905095945050505050565b600081519050612c0581611b22565b92915050565b600060208284031215612c2157612c20611aec565b5b6000612c2f84828501612bf6565b91505092915050565b7f4552433732313a206d696e7420746f20746865207a65726f2061646472657373600082015250565b6000612c6e602083611bbc565b9150612c7982612c38565b602082019050919050565b60006020820190508181036000830152612c9d81612c61565b9050919050565b7f4552433732313a20746f6b656e20616c7265616479206d696e74656400000000600082015250565b6000612cda601c83611bbc565b9150612ce582612ca4565b602082019050919050565b60006020820190508181036000830152612d0981612ccd565b905091905056fe697066733a2f2f516d514c754e66355371717a4a5774484e37314e3741526f657a6e6939657172424d51566d6f4d7156707845756d2fa26469706673582212207719ee087807f4b56db99def3895bc7e517f1abb5ad1f08abb0190c52345211464736f6c634300080f0033",
  "immutableReferences": {},
  "source": "// SPDX-License-Identifier: MIT\npragma solidity ^0.8.4;\n\nimport \"@openzeppelin/contracts/token/ERC721/ERC721.sol\";\nimport \"@openzeppelin/contracts/access/Ownable.sol\";\nimport \"@openzeppelin/contracts/utils/Counters.sol\";\nimport \"@openzeppelin/contracts/utils/Strings.sol\";\n\n/**\n * A very basic NFT contract used for testing the main contract\n * Uses the artwork from the hobotown CC0 project\n */\ncontract SimpleNFT is ERC721, Ownable {\n    using Counters for Counters.Counter;\n\n    Counters.Counter public tokenIdCounter;\n\tstring public uriSuffix = \".json\";\n\n    constructor() ERC721(\"SimpleNFT\", \"SIMPLENFT\") {}\n\n    function safeMint(address to) public onlyOwner {\n\t\t// TODO: add check to not go over max supply\n\t\ttokenIdCounter.increment();\n        uint256 tokenId = tokenIdCounter.current();\n        _safeMint(to, tokenId);\n    }\n\n\tfunction _baseURI() internal pure override returns (string memory) {\n        return \"ipfs://QmQLuNf5SqqzJWtHN71N7ARoezni9eqrBMQVmoMqVpxEum/\";\n    }\n\n\tfunction tokenURI(uint256 _tokenId) public view override returns (string memory) {\n        require(_exists(_tokenId), \"URI query for nonexistent token\");\n\n        string memory currentBaseURI = _baseURI();\n        return\n            bytes(currentBaseURI).length > 0\n                ? string(\n                    abi.encodePacked(\n                        currentBaseURI,\n                        Strings.toString(_tokenId),\n                        uriSuffix\n                    )\n                )\n                : \"\";\n    }\n}",
  "sourcePath": "/Users/trav/code/web3/neon-nacho-labs/contracts/SimpleNFT.sol",
  "compiler": {
    "name": "solc",
    "version": "0.8.15+commit.e14f2714.Emscripten.clang"
  },
  "schemaVersion": "3.4.8",
  "updatedAt": "2022-07-25T19:46:26.743Z",
  "networkType": "ethereum",
  "devdoc": {
    "kind": "dev",
    "methods": {
      "approve(address,uint256)": {
        "details": "See {IERC721-approve}."
      },
      "balanceOf(address)": {
        "details": "See {IERC721-balanceOf}."
      },
      "getApproved(uint256)": {
        "details": "See {IERC721-getApproved}."
      },
      "isApprovedForAll(address,address)": {
        "details": "See {IERC721-isApprovedForAll}."
      },
      "name()": {
        "details": "See {IERC721Metadata-name}."
      },
      "owner()": {
        "details": "Returns the address of the current owner."
      },
      "ownerOf(uint256)": {
        "details": "See {IERC721-ownerOf}."
      },
      "renounceOwnership()": {
        "details": "Leaves the contract without owner. It will not be possible to call `onlyOwner` functions anymore. Can only be called by the current owner. NOTE: Renouncing ownership will leave the contract without an owner, thereby removing any functionality that is only available to the owner."
      },
      "safeTransferFrom(address,address,uint256)": {
        "details": "See {IERC721-safeTransferFrom}."
      },
      "safeTransferFrom(address,address,uint256,bytes)": {
        "details": "See {IERC721-safeTransferFrom}."
      },
      "setApprovalForAll(address,bool)": {
        "details": "See {IERC721-setApprovalForAll}."
      },
      "supportsInterface(bytes4)": {
        "details": "See {IERC165-supportsInterface}."
      },
      "symbol()": {
        "details": "See {IERC721Metadata-symbol}."
      },
      "transferFrom(address,address,uint256)": {
        "details": "See {IERC721-transferFrom}."
      },
      "transferOwnership(address)": {
        "details": "Transfers ownership of the contract to a new account (`newOwner`). Can only be called by the current owner."
      }
    },
    "version": 1
  },
  "userdoc": {
    "kind": "user",
    "methods": {},
    "notice": "A very basic NFT contract used for testing the main contract Uses the artwork from the hobotown CC0 project",
    "version": 1
  }
}